{
  "contractName": "DCReum",
  "abi": [
    {
      "anonymous": false,
      "inputs": [
        {
          "indexed": true,
          "internalType": "uint256",
          "name": "workflowId",
          "type": "uint256"
        },
        {
          "indexed": true,
          "internalType": "uint256",
          "name": "activityId",
          "type": "uint256"
        },
        {
          "indexed": true,
          "internalType": "address",
          "name": "executor",
          "type": "address"
        }
      ],
      "name": "LogExecution",
      "type": "event"
    },
    {
      "anonymous": false,
      "inputs": [
        {
          "indexed": true,
          "internalType": "uint256",
          "name": "workflowId",
          "type": "uint256"
        },
        {
          "indexed": true,
          "internalType": "bytes32",
          "name": "workflowName",
          "type": "bytes32"
        },
        {
          "indexed": true,
          "internalType": "address",
          "name": "creator",
          "type": "address"
        }
      ],
      "name": "LogWorkflowCreation",
      "type": "event"
    },
    {
      "constant": true,
      "inputs": [],
      "name": "getWorkflowCount",
      "outputs": [
        {
          "internalType": "uint256",
          "name": "",
          "type": "uint256"
        }
      ],
      "payable": false,
      "stateMutability": "view",
      "type": "function"
    },
    {
      "constant": true,
      "inputs": [
        {
          "internalType": "uint256",
          "name": "workflowId",
          "type": "uint256"
        }
      ],
      "name": "getWorkflowName",
      "outputs": [
        {
          "internalType": "bytes32",
          "name": "",
          "type": "bytes32"
        }
      ],
      "payable": false,
      "stateMutability": "view",
      "type": "function"
    },
    {
      "constant": true,
      "inputs": [
        {
          "internalType": "uint256",
          "name": "workflowId",
          "type": "uint256"
        }
      ],
      "name": "getActivityCount",
      "outputs": [
        {
          "internalType": "uint256",
          "name": "",
          "type": "uint256"
        }
      ],
      "payable": false,
      "stateMutability": "view",
      "type": "function"
    },
    {
      "constant": true,
      "inputs": [
        {
          "internalType": "uint256",
          "name": "workflowId",
          "type": "uint256"
        },
        {
          "internalType": "uint256",
          "name": "activityId",
          "type": "uint256"
        }
      ],
      "name": "getActivityName",
      "outputs": [
        {
          "internalType": "bytes32",
          "name": "",
          "type": "bytes32"
        }
      ],
      "payable": false,
      "stateMutability": "view",
      "type": "function"
    },
    {
      "constant": true,
      "inputs": [
        {
          "internalType": "uint256",
          "name": "workflowId",
          "type": "uint256"
        },
        {
          "internalType": "uint256",
          "name": "activityId",
          "type": "uint256"
        }
      ],
      "name": "isIncluded",
      "outputs": [
        {
          "internalType": "bool",
          "name": "",
          "type": "bool"
        }
      ],
      "payable": false,
      "stateMutability": "view",
      "type": "function"
    },
    {
      "constant": true,
      "inputs": [
        {
          "internalType": "uint256",
          "name": "workflowId",
          "type": "uint256"
        },
        {
          "internalType": "uint256",
          "name": "activityId",
          "type": "uint256"
        }
      ],
      "name": "isExecuted",
      "outputs": [
        {
          "internalType": "bool",
          "name": "",
          "type": "bool"
        }
      ],
      "payable": false,
      "stateMutability": "view",
      "type": "function"
    },
    {
      "constant": true,
      "inputs": [
        {
          "internalType": "uint256",
          "name": "workflowId",
          "type": "uint256"
        },
        {
          "internalType": "uint256",
          "name": "activityId",
          "type": "uint256"
        }
      ],
      "name": "isPending",
      "outputs": [
        {
          "internalType": "bool",
          "name": "",
          "type": "bool"
        }
      ],
      "payable": false,
      "stateMutability": "view",
      "type": "function"
    },
    {
      "constant": true,
      "inputs": [
        {
          "internalType": "uint256",
          "name": "workflowId",
          "type": "uint256"
        },
        {
          "internalType": "uint256",
          "name": "activityId",
          "type": "uint256"
        }
      ],
      "name": "getIncludes",
      "outputs": [
        {
          "internalType": "uint8[]",
          "name": "",
          "type": "uint8[]"
        }
      ],
      "payable": false,
      "stateMutability": "view",
      "type": "function"
    },
    {
      "constant": true,
      "inputs": [
        {
          "internalType": "uint256",
          "name": "workflowId",
          "type": "uint256"
        },
        {
          "internalType": "uint256",
          "name": "activityId",
          "type": "uint256"
        }
      ],
      "name": "getExcludes",
      "outputs": [
        {
          "internalType": "uint8[]",
          "name": "",
          "type": "uint8[]"
        }
      ],
      "payable": false,
      "stateMutability": "view",
      "type": "function"
    },
    {
      "constant": true,
      "inputs": [
        {
          "internalType": "uint256",
          "name": "workflowId",
          "type": "uint256"
        },
        {
          "internalType": "uint256",
          "name": "activityId",
          "type": "uint256"
        }
      ],
      "name": "getResponses",
      "outputs": [
        {
          "internalType": "uint8[]",
          "name": "",
          "type": "uint8[]"
        }
      ],
      "payable": false,
      "stateMutability": "view",
      "type": "function"
    },
    {
      "constant": true,
      "inputs": [
        {
          "internalType": "uint256",
          "name": "workflowId",
          "type": "uint256"
        },
        {
          "internalType": "uint256",
          "name": "activityId",
          "type": "uint256"
        }
      ],
      "name": "getConditions",
      "outputs": [
        {
          "internalType": "uint8[]",
          "name": "",
          "type": "uint8[]"
        }
      ],
      "payable": false,
      "stateMutability": "view",
      "type": "function"
    },
    {
      "constant": true,
      "inputs": [
        {
          "internalType": "uint256",
          "name": "workflowId",
          "type": "uint256"
        },
        {
          "internalType": "uint256",
          "name": "activityId",
          "type": "uint256"
        }
      ],
      "name": "getMilestones",
      "outputs": [
        {
          "internalType": "uint8[]",
          "name": "",
          "type": "uint8[]"
        }
      ],
      "payable": false,
      "stateMutability": "view",
      "type": "function"
    },
    {
      "constant": true,
      "inputs": [
        {
          "internalType": "uint256",
          "name": "workflowId",
          "type": "uint256"
        },
        {
          "internalType": "uint256",
          "name": "activityId",
          "type": "uint256"
        }
      ],
      "name": "getAccountWhitelist",
      "outputs": [
        {
          "internalType": "address[]",
          "name": "",
          "type": "address[]"
        }
      ],
      "payable": false,
      "stateMutability": "view",
      "type": "function"
    },
    {
      "constant": true,
      "inputs": [
        {
          "internalType": "uint256",
          "name": "workflowId",
          "type": "uint256"
        },
        {
          "internalType": "uint256",
          "name": "activityId",
          "type": "uint256"
        }
      ],
      "name": "isAuthDisabled",
      "outputs": [
        {
          "internalType": "bool",
          "name": "",
          "type": "bool"
        }
      ],
      "payable": false,
      "stateMutability": "view",
      "type": "function"
    },
    {
      "constant": true,
      "inputs": [
        {
          "internalType": "uint256",
          "name": "workflowId",
          "type": "uint256"
        },
        {
          "internalType": "uint256",
          "name": "activityId",
          "type": "uint256"
        }
      ],
      "name": "canExecute",
      "outputs": [
        {
          "internalType": "bool",
          "name": "",
          "type": "bool"
        }
      ],
      "payable": false,
      "stateMutability": "view",
      "type": "function"
    },
    {
      "constant": false,
      "inputs": [
        {
          "internalType": "uint256",
          "name": "workflowId",
          "type": "uint256"
        },
        {
          "internalType": "uint256",
          "name": "activityId",
          "type": "uint256"
        }
      ],
      "name": "execute",
      "outputs": [],
      "payable": false,
      "stateMutability": "nonpayable",
      "type": "function"
    },
    {
      "constant": false,
      "inputs": [
        {
          "internalType": "bytes32",
          "name": "workflowName",
          "type": "bytes32"
        },
        {
          "internalType": "bytes32[]",
          "name": "activityNames",
          "type": "bytes32[]"
        },
        {
          "internalType": "uint256",
          "name": "includedStates",
          "type": "uint256"
        },
        {
          "internalType": "uint256",
          "name": "executedStates",
          "type": "uint256"
        },
        {
          "internalType": "uint256",
          "name": "pendingStates",
          "type": "uint256"
        },
        {
          "internalType": "uint256[]",
          "name": "includesTo",
          "type": "uint256[]"
        },
        {
          "internalType": "uint256[]",
          "name": "excludesTo",
          "type": "uint256[]"
        },
        {
          "internalType": "uint256[]",
          "name": "responsesTo",
          "type": "uint256[]"
        },
        {
          "internalType": "uint256[]",
          "name": "conditionsFrom",
          "type": "uint256[]"
        },
        {
          "internalType": "uint256[]",
          "name": "milestonesFrom",
          "type": "uint256[]"
        },
        {
          "internalType": "uint256",
          "name": "authDisabled",
          "type": "uint256"
        },
        {
          "internalType": "address[]",
          "name": "authAccounts",
          "type": "address[]"
        },
        {
          "internalType": "uint256[]",
          "name": "authWhitelist",
          "type": "uint256[]"
        }
      ],
      "name": "createWorkflow",
      "outputs": [],
      "payable": false,
      "stateMutability": "nonpayable",
      "type": "function"
    }
  ],
  "bytecode": "0x608060405234801561001057600080fd5b50611912806100206000396000f3fe608060405234801561001057600080fd5b506004361061010b5760003560e01c80638bb19439116100a2578063bc643df111610071578063bc643df114610a0f578063d7a23fd414610a9c578063e30cfa4014610ade578063f462671e14610b2e578063fac66f0114610b7e5761010b565b80638bb19439146108c857806392d7f787146109185780639beaa524146109a5578063b087b8bc146109f15761010b565b80635601eaea116100de5780635601eaea1461077157806368e5a07e146107a95780637b7e97f11461083657806380a3f8b4146108865761010b565b806302d2d49c1461011057806314a34ebd146106075780632ba2921714610694578063471a20e7146106e4575b600080fd5b61060560048036036101a081101561012757600080fd5b81019080803590602001909291908035906020019064010000000081111561014e57600080fd5b82018360208201111561016057600080fd5b8035906020019184602083028401116401000000008311171561018257600080fd5b919080806020026020016040519081016040528093929190818152602001838360200280828437600081840152601f19601f8201169050808301925050505050505091929192908035906020019092919080359060200190929190803590602001909291908035906020019064010000000081111561020057600080fd5b82018360208201111561021257600080fd5b8035906020019184602083028401116401000000008311171561023457600080fd5b919080806020026020016040519081016040528093929190818152602001838360200280828437600081840152601f19601f8201169050808301925050505050505091929192908035906020019064010000000081111561029457600080fd5b8201836020820111156102a657600080fd5b803590602001918460208302840111640100000000831117156102c857600080fd5b919080806020026020016040519081016040528093929190818152602001838360200280828437600081840152601f19601f8201169050808301925050505050505091929192908035906020019064010000000081111561032857600080fd5b82018360208201111561033a57600080fd5b8035906020019184602083028401116401000000008311171561035c57600080fd5b919080806020026020016040519081016040528093929190818152602001838360200280828437600081840152601f19601f820116905080830192505050505050509192919290803590602001906401000000008111156103bc57600080fd5b8201836020820111156103ce57600080fd5b803590602001918460208302840111640100000000831117156103f057600080fd5b919080806020026020016040519081016040528093929190818152602001838360200280828437600081840152601f19601f8201169050808301925050505050505091929192908035906020019064010000000081111561045057600080fd5b82018360208201111561046257600080fd5b8035906020019184602083028401116401000000008311171561048457600080fd5b919080806020026020016040519081016040528093929190818152602001838360200280828437600081840152601f19601f82011690508083019250505050505050919291929080359060200190929190803590602001906401000000008111156104ee57600080fd5b82018360208201111561050057600080fd5b8035906020019184602083028401116401000000008311171561052257600080fd5b919080806020026020016040519081016040528093929190818152602001838360200280828437600081840152601f19601f8201169050808301925050505050505091929192908035906020019064010000000081111561058257600080fd5b82018360208201111561059457600080fd5b803590602001918460208302840111640100000000831117156105b657600080fd5b919080806020026020016040519081016040528093929190818152602001838360200280828437600081840152601f19601f820116905080830192505050505050509192919290505050610c0b565b005b61063d6004803603604081101561061d57600080fd5b810190808035906020019092919080359060200190929190505050610de1565b6040518080602001828103825283818151815260200191508051906020019060200280838360005b83811015610680578082015181840152602081019050610665565b505050509050019250505060405180910390f35b6106ca600480360360408110156106aa57600080fd5b810190808035906020019092919080359060200190929190505050610e27565b604051808215151515815260200191505060405180910390f35b61071a600480360360408110156106fa57600080fd5b810190808035906020019092919080359060200190929190505050610fe9565b6040518080602001828103825283818151815260200191508051906020019060200280838360005b8381101561075d578082015181840152602081019050610742565b505050509050019250505060405180910390f35b6107a76004803603604081101561078757600080fd5b81019080803590602001909291908035906020019092919050505061102f565b005b6107df600480360360408110156107bf57600080fd5b810190808035906020019092919080359060200190929190505050611140565b6040518080602001828103825283818151815260200191508051906020019060200280838360005b83811015610822578082015181840152602081019050610807565b505050509050019250505060405180910390f35b61086c6004803603604081101561084c57600080fd5b810190808035906020019092919080359060200190929190505050611186565b604051808215151515815260200191505060405180910390f35b6108b26004803603602081101561089c57600080fd5b81019080803590602001909291905050506111b8565b6040518082815260200191505060405180910390f35b6108fe600480360360408110156108de57600080fd5b8101908080359060200190929190803590602001909291905050506111df565b604051808215151515815260200191505060405180910390f35b61094e6004803603604081101561092e57600080fd5b810190808035906020019092919080359060200190929190505050611211565b6040518080602001828103825283818151815260200191508051906020019060200280838360005b83811015610991578082015181840152602081019050610976565b505050509050019250505060405180910390f35b6109db600480360360408110156109bb57600080fd5b81019080803590602001909291908035906020019092919050505061139b565b6040518082815260200191505060405180910390f35b6109f96113d8565b6040518082815260200191505060405180910390f35b610a4560048036036040811015610a2557600080fd5b8101908080359060200190929190803590602001909291905050506113e4565b6040518080602001828103825283818151815260200191508051906020019060200280838360005b83811015610a88578082015181840152602081019050610a6d565b505050509050019250505060405180910390f35b610ac860048036036020811015610ab257600080fd5b810190808035906020019092919050505061142a565b6040518082815260200191505060405180910390f35b610b1460048036036040811015610af457600080fd5b810190808035906020019092919080359060200190929190505050611454565b604051808215151515815260200191505060405180910390f35b610b6460048036036040811015610b4457600080fd5b810190808035906020019092919080359060200190929190505050611486565b604051808215151515815260200191505060405180910390f35b610bb460048036036040811015610b9457600080fd5b8101908080359060200190929190803590602001909291905050506114b7565b6040518080602001828103825283818151815260200191508051906020019060200280838360005b83811015610bf7578082015181840152602081019050610bdc565b505050509050019250505060405180910390f35b6101008c511115610c1857fe5b87518c5114610c2357fe5b86518c5114610c2e57fe5b85518c5114610c3957fe5b84518c5114610c4457fe5b83518c5114610c4f57fe5b8051825114610c5a57fe5b60008060008054809190600101610c7191906115d0565b81548110610c7b57fe5b90600052602060002090600d020190508d81600001819055508c816001019080519060200190610cac929190611602565b508b81600201819055508a816003018190555089816004018190555088816005019080519060200190610ce092919061164f565b5087816006019080519060200190610cf992919061164f565b5086816007019080519060200190610d1292919061164f565b5085816008019080519060200190610d2b92919061164f565b5084816009019080519060200190610d4492919061164f565b508381600a01819055508281600b019080519060200190610d6692919061169c565b508181600c019080519060200190610d7f92919061164f565b503373ffffffffffffffffffffffffffffffffffffffff1681600001546001600080549050037f154ac87c8b44ca5014997d52404eaa6e8d74bb054aebb18413af020554fa74f160405160405180910390a45050505050505050505050505050565b6060610e1f60008481548110610df357fe5b90600052602060002090600d02016009018381548110610e0f57fe5b90600052602060002001546114fd565b905092915050565b60008060008481548110610e3757fe5b90600052602060002090600d02019050600080846001901b83600a0154161415610f4d57600090505b81600b01805490508163ffffffff161015610f2c573373ffffffffffffffffffffffffffffffffffffffff1682600b018263ffffffff1681548110610ea157fe5b9060005260206000200160009054906101000a900473ffffffffffffffffffffffffffffffffffffffff1673ffffffffffffffffffffffffffffffffffffffff16148015610f1557506000846001901b83600c018363ffffffff1681548110610f0657fe5b90600052602060002001541614155b15610f1f57610f2c565b8080600101915050610e60565b81600b01805490508163ffffffff161415610f4c57600092505050610fe3565b5b6000846001901b8360020154161415610f6b57600092505050610fe3565b6000826002015483600301541916836008018681548110610f8857fe5b90600052602060002001541614610fa457600092505050610fe3565b60008260020154836004015416836009018681548110610fc057fe5b90600052602060002001541614610fdc57600092505050610fe3565b6001925050505b92915050565b606061102760008481548110610ffb57fe5b90600052602060002090600d0201600701838154811061101757fe5b90600052602060002001546114fd565b905092915050565b600080838154811061103d57fe5b90600052602060002090600d0201905060006110598484610e27565b61106257600080fd5b826001901b8260030154178260030181905550826001901b19826004015416826004018190555081600501838154811061109857fe5b90600052602060002001548260060184815481106110b257fe5b9060005260206000200154198360020154161782600201819055508160070183815481106110dc57fe5b906000526020600020015482600401541782600401819055503373ffffffffffffffffffffffffffffffffffffffff1683857fd853302052b9b346cf4b175b34d36663cb511da3c0c7f221f21ec256fc7f625160405160405180910390a450505050565b606061117e6000848154811061115257fe5b90600052602060002090600d0201600601838154811061116e57fe5b90600052602060002001546114fd565b905092915050565b600080826001901b6000858154811061119b57fe5b90600052602060002090600d020160020154161415905092915050565b60008082815481106111c657fe5b90600052602060002090600d0201600001549050919050565b600080826001901b600085815481106111f457fe5b90600052602060002090600d020160040154161415905092915050565b6060600080848154811061122157fe5b90600052602060002090600d0201905060008060008092505b83600c0180549050831015611286576000866001901b85600c01858154811061125f57fe5b906000526020600020015416146112795780806001019150505b828060010193505061123a565b600091506060816040519080825280602002602001820160405280156112bb5781602001602082028038833980820191505090505b509050600093505b84600c018054905084101561138d576000876001901b86600c0186815481106112e857fe5b906000526020600020015416146113805784600b01848154811061130857fe5b9060005260206000200160009054906101000a900473ffffffffffffffffffffffffffffffffffffffff1681848060010195508151811061134557fe5b602002602001019073ffffffffffffffffffffffffffffffffffffffff16908173ffffffffffffffffffffffffffffffffffffffff16815250505b83806001019450506112c3565b809550505050505092915050565b60008083815481106113a957fe5b90600052602060002090600d020160010182815481106113c557fe5b9060005260206000200154905092915050565b60008080549050905090565b6060611422600084815481106113f657fe5b90600052602060002090600d0201600501838154811061141257fe5b90600052602060002001546114fd565b905092915050565b600080828154811061143857fe5b90600052602060002090600d0201600101805490509050919050565b600080826001901b6000858154811061146957fe5b90600052602060002090600d020160030154161415905092915050565b600080826001901b6000858154811061149b57fe5b90600052602060002090600d0201600a01541614905092915050565b60606114f5600084815481106114c957fe5b90600052602060002090600d020160080183815481106114e557fe5b90600052602060002001546114fd565b905092915050565b606060008060009050600091505b610100821015611539576000826001901b85161461152c5780806001019150505b818060010192505061150b565b600080905060608260405190808252806020026020018201604052801561156f5781602001602082028038833980820191505090505b509050600093505b6101008410156115c4576000846001901b8716146115b757838183806001019450815181106115a257fe5b602002602001019060ff16908160ff16815250505b8380600101945050611577565b80945050505050919050565b8154818355818111156115fd57600d0281600d0283600052602060002091820191016115fc9190611726565b5b505050565b82805482825590600052602060002090810192821561163e579160200282015b8281111561163d578251825591602001919060010190611622565b5b50905061164b91906117ed565b5090565b82805482825590600052602060002090810192821561168b579160200282015b8281111561168a57825182559160200191906001019061166f565b5b5090506116989190611812565b5090565b828054828255906000526020600020908101928215611715579160200282015b828111156117145782518260006101000a81548173ffffffffffffffffffffffffffffffffffffffff021916908373ffffffffffffffffffffffffffffffffffffffff160217905550916020019190600101906116bc565b5b5090506117229190611837565b5090565b6117ea91905b808211156117e65760008082016000905560018201600061174d919061187a565b600282016000905560038201600090556004820160009055600582016000611775919061189b565b600682016000611785919061189b565b600782016000611795919061189b565b6008820160006117a5919061189b565b6009820160006117b5919061189b565b600a820160009055600b820160006117cd91906118bc565b600c820160006117dd919061189b565b50600d0161172c565b5090565b90565b61180f91905b8082111561180b5760008160009055506001016117f3565b5090565b90565b61183491905b80821115611830576000816000905550600101611818565b5090565b90565b61187791905b8082111561187357600081816101000a81549073ffffffffffffffffffffffffffffffffffffffff02191690555060010161183d565b5090565b90565b508054600082559060005260206000209081019061189891906117ed565b50565b50805460008255906000526020600020908101906118b99190611812565b50565b50805460008255906000526020600020908101906118da9190611812565b5056fea265627a7a72315820a75e167fe743a938aba7c32f2a7672e5d6ac7d23c4f0c0087a69435101f1397164736f6c63430005100032",
  "source": "pragma solidity 0.5.16;\r\n\r\ncontract DCReum {\r\n  event LogWorkflowCreation (uint256 indexed workflowId, bytes32 indexed workflowName, address indexed creator);\r\n  event LogExecution (uint256 indexed workflowId, uint256 indexed activityId, address indexed executor);\r\n\r\n  struct Workflow {\r\n    bytes32 name;\r\n\r\n    //activity data:\r\n    bytes32[] activityNames;\r\n    uint256 included;\r\n    uint256 executed;\r\n    uint256 pending;\r\n\r\n    //relations\r\n    uint256[] includesTo;\r\n    uint256[] excludesTo;\r\n    uint256[] responsesTo;\r\n    uint256[] conditionsFrom;\r\n    uint256[] milestonesFrom;\r\n\r\n    //auth:\r\n    uint256 authDisabled;\r\n    address[] authAccounts;\r\n    uint256[] authWhitelist;\r\n  }\r\n\r\n  Workflow[] workflows;\r\n\r\n  function getWorkflowCount() public view returns (uint256) {\r\n    return workflows.length;\r\n  }\r\n\r\n  function getWorkflowName(uint256 workflowId) public view returns (bytes32) {\r\n    return workflows[workflowId].name;\r\n  }\r\n\r\n  function getActivityCount(uint256 workflowId) public view returns (uint256) {\r\n    return workflows[workflowId].activityNames.length;\r\n  }\r\n\r\n  function getActivityName(uint256 workflowId, uint256 activityId) public view returns (bytes32) {\r\n     return workflows[workflowId].activityNames[activityId];\r\n  }\r\n\r\n  function isIncluded(uint256 workflowId, uint256 activityId) public view returns (bool) {\r\n    return ((workflows[workflowId].included & (1<<activityId)) != 0);\r\n  }\r\n\r\n  function isExecuted(uint256 workflowId, uint256 activityId) public view returns (bool) {\r\n    return ((workflows[workflowId].executed & (1<<activityId)) != 0);\r\n  }\r\n\r\n  function isPending(uint256 workflowId, uint256 activityId) public view returns (bool) {\r\n    return ((workflows[workflowId].pending & (1<<activityId)) != 0);\r\n  }\r\n  \r\n  function getRelations(uint256 relations) private view returns (uint8[] memory) {\r\n    uint i;\r\n    uint count = 0;\r\n    for (i = 0; i < 256; i++) {\r\n      if ((relations & (1<<i)) != 0)\r\n        count++;\r\n    }\r\n\r\n    uint j = 0;\r\n    uint8[] memory result = new uint8[](count);\r\n    for (i = 0; i < 256; i++) {\r\n      if ((relations & (1<<i)) != 0)\r\n        result[j++] = uint8(i);\r\n    }\r\n\r\n    return result;\r\n  }\r\n\r\n  function getIncludes (uint256 workflowId, uint256 activityId) external view returns (uint8[] memory) {\r\n    return getRelations(workflows[workflowId].includesTo[activityId]);\r\n  }\r\n\r\n  function getExcludes (uint256 workflowId, uint256 activityId) external view returns (uint8[] memory) {\r\n    return getRelations(workflows[workflowId].excludesTo[activityId]);\r\n  }\r\n\r\n  function getResponses (uint256 workflowId, uint256 activityId) external view returns (uint8[] memory) {\r\n    return getRelations(workflows[workflowId].responsesTo[activityId]);\r\n  }\r\n\r\n  function getConditions (uint256 workflowId, uint256 activityId) external view returns (uint8[] memory) {\r\n    return getRelations(workflows[workflowId].conditionsFrom[activityId]);\r\n  }\r\n\r\n  function getMilestones (uint256 workflowId, uint256 activityId) external view returns (uint8[] memory) {\r\n    return getRelations(workflows[workflowId].milestonesFrom[activityId]);\r\n  }\r\n\r\n  function getAccountWhitelist (uint256 workflowId, uint256 activityId) public view returns (address[] memory) {\r\n    Workflow storage workflow = workflows[workflowId];\r\n    uint i;\r\n    uint j;\r\n    uint count;\r\n\r\n    for (i = 0; i < workflow.authWhitelist.length; i++)\r\n      if ((workflow.authWhitelist[i] & (1<<activityId)) != 0)\r\n        count++;\r\n\r\n    j = 0;\r\n    address[] memory result = new address[](count);\r\n    for (i = 0; i < workflow.authWhitelist.length; i++)\r\n      if ((workflow.authWhitelist[i] & (1<<activityId)) != 0)\r\n        result[j++] = workflow.authAccounts[i];\r\n\r\n    return result;\r\n  }\r\n\r\n  function isAuthDisabled (uint256 workflowId, uint256 activityId) public view returns (bool) {\r\n    return ((workflows[workflowId].authDisabled & (1<<activityId)) == 0);\r\n  }\r\n\r\n  function canExecute (uint256 workflowId, uint256 activityId) public view returns (bool) {\r\n    Workflow storage workflow = workflows[workflowId];\r\n    uint32 i;\r\n\r\n    // sender address must have rights to execute or authorization must be disabled entirely\r\n    if ((workflow.authDisabled & (1<<activityId)) == 0) {\r\n      for (i = 0; i < workflow.authAccounts.length; i++)\r\n        if (workflow.authAccounts[i] == msg.sender && (workflow.authWhitelist[i] & (1<<activityId)) != 0)\r\n          break; // sender authorized\r\n\r\n      // sender not in authAccounts array or was not authorized by authWhitelist\r\n      if (i == workflow.authAccounts.length)\r\n        return false;\r\n    }\r\n    \r\n    // activity must be included\r\n    if ((workflow.included & (1<<activityId)) == 0) return false;\r\n\r\n    // all conditions executed\r\n    if(workflow.conditionsFrom[activityId] & (~workflow.executed & workflow.included) != 0) return false;\r\n\r\n    // no milestones pending\r\n    if(workflow.milestonesFrom[activityId] & (workflow.pending & workflow.included) != 0) return false;\r\n\r\n    return true;\r\n  }\r\n\r\n  function execute(uint256 workflowId, uint256 activityId) public {\r\n    Workflow storage workflow = workflows[workflowId];\r\n    uint32 i;\r\n\r\n    if (!canExecute(workflowId, activityId)) revert();\r\n\r\n    // executed activity\r\n    workflow.executed = workflow.executed | (1<<activityId);\r\n    workflow.pending = workflow.pending & ~(1<<activityId);\r\n\r\n    // exclude and include relations pass\r\n    // note includes happens after the exclude pass    \r\n    workflow.included = (workflow.included & ~workflow.excludesTo[activityId]) | workflow.includesTo[activityId];\r\n\r\n    // response relations pass\r\n    workflow.pending = (workflow.pending | workflow.responsesTo[activityId]);\r\n\r\n    emit LogExecution(workflowId, activityId, msg.sender);\r\n  }\r\n\r\n  function createWorkflow(\r\n    bytes32 workflowName,\r\n    bytes32[] memory activityNames,\r\n\r\n    // packed state variables\r\n    uint256 includedStates,\r\n    uint256 executedStates,\r\n    uint256 pendingStates,\r\n\r\n    // relations\r\n    uint256[] memory includesTo,\r\n    uint256[] memory excludesTo,\r\n    uint256[] memory responsesTo,\r\n    uint256[] memory conditionsFrom,\r\n    uint256[] memory milestonesFrom,\r\n\r\n    // auth\r\n    uint256 authDisabled,\r\n    address[] memory authAccounts,\r\n    uint256[] memory authWhitelist\r\n  ) public {\r\n    assert(activityNames.length <= 256);\r\n    assert(activityNames.length == includesTo.length);\r\n    assert(activityNames.length == excludesTo.length);\r\n    assert(activityNames.length == responsesTo.length);\r\n    assert(activityNames.length == conditionsFrom.length);\r\n    assert(activityNames.length == milestonesFrom.length);\r\n    assert(authAccounts.length == authWhitelist.length);\r\n\r\n    Workflow storage workflow = workflows[workflows.length++];\r\n    workflow.name = workflowName;\r\n\r\n    // activity data\r\n    workflow.activityNames = activityNames;\r\n    workflow.included = includedStates;\r\n    workflow.executed = executedStates;\r\n    workflow.pending = pendingStates;\r\n\r\n    // relations\r\n    workflow.includesTo = includesTo;\r\n    workflow.excludesTo = excludesTo;\r\n    workflow.responsesTo = responsesTo;\r\n    workflow.conditionsFrom = conditionsFrom;\r\n    workflow.milestonesFrom = milestonesFrom;\r\n\r\n    // auth\r\n    workflow.authDisabled = authDisabled;\r\n    workflow.authAccounts = authAccounts;\r\n    workflow.authWhitelist = authWhitelist;\r\n    \r\n    emit LogWorkflowCreation(workflows.length - 1, workflow.name, msg.sender);\r\n  }\r\n}\r\n",
  "sourcePath": "C:\\Users\\tipha\\source\\repos\\react-cyto\\contracts\\DCReum.sol",
  "compiler": {
    "name": "solc",
    "version": "0.5.16+commit.9c3226ce.Emscripten.clang"
  },
  "schemaVersion": "3.2.1",
  "updatedAt": "2020-07-16T09:05:26.877Z",
  "networkType": "ethereum",
  "devdoc": {
    "methods": {}
  },
  "userdoc": {
    "methods": {}
  }
}