{
  "contractName": "SimpleDCReum",
  "abi": [
    {
      "anonymous": false,
      "inputs": [
        {
          "indexed": true,
          "internalType": "uint256",
          "name": "activityId",
          "type": "uint256"
        },
        {
          "indexed": true,
          "internalType": "address",
          "name": "executor",
          "type": "address"
        }
      ],
      "name": "LogExecution",
      "type": "event"
    },
    {
      "anonymous": false,
      "inputs": [
        {
          "indexed": true,
          "internalType": "address",
          "name": "creator",
          "type": "address"
        }
      ],
      "name": "LogWorkflowCreation",
      "type": "event"
    },
    {
      "constant": false,
      "inputs": [
        {
          "internalType": "uint256",
          "name": "activityId",
          "type": "uint256"
        }
      ],
      "name": "checkCliquedIndex",
      "outputs": [],
      "payable": false,
      "stateMutability": "nonpayable",
      "type": "function"
    },
    {
      "constant": true,
      "inputs": [],
      "name": "getStatus",
      "outputs": [
        {
          "internalType": "uint256",
          "name": "",
          "type": "uint256"
        }
      ],
      "payable": false,
      "stateMutability": "view",
      "type": "function"
    },
    {
      "constant": true,
      "inputs": [],
      "name": "getWkfLength",
      "outputs": [
        {
          "internalType": "uint256",
          "name": "",
          "type": "uint256"
        }
      ],
      "payable": false,
      "stateMutability": "view",
      "type": "function"
    },
    {
      "constant": true,
      "inputs": [
        {
          "internalType": "uint256",
          "name": "activityId",
          "type": "uint256"
        }
      ],
      "name": "canExecute",
      "outputs": [
        {
          "internalType": "bool",
          "name": "",
          "type": "bool"
        }
      ],
      "payable": false,
      "stateMutability": "view",
      "type": "function"
    },
    {
      "constant": false,
      "inputs": [
        {
          "internalType": "uint256",
          "name": "_includedStates",
          "type": "uint256"
        },
        {
          "internalType": "uint256",
          "name": "_executedStates",
          "type": "uint256"
        },
        {
          "internalType": "uint256",
          "name": "_pendingStates",
          "type": "uint256"
        },
        {
          "internalType": "uint256[]",
          "name": "_includesTo",
          "type": "uint256[]"
        },
        {
          "internalType": "uint256[]",
          "name": "_excludesTo",
          "type": "uint256[]"
        },
        {
          "internalType": "uint256[]",
          "name": "_responsesTo",
          "type": "uint256[]"
        },
        {
          "internalType": "uint256[]",
          "name": "_conditionsFrom",
          "type": "uint256[]"
        },
        {
          "internalType": "uint256[]",
          "name": "_milestonesFrom",
          "type": "uint256[]"
        }
      ],
      "name": "createWorkflow",
      "outputs": [],
      "payable": false,
      "stateMutability": "nonpayable",
      "type": "function"
    }
  ],
  "bytecode": "0x608060405234801561001057600080fd5b50610656806100206000396000f3fe608060405234801561001057600080fd5b50600436106100575760003560e01c80634e69d5601461005c578063749f27581461007a57806385a483de146100a85780638cb9e33b146100c6578063cc63604a146103ed575b600080fd5b610064610433565b6040518082815260200191505060405180910390f35b6100a66004803603602081101561009057600080fd5b810190808035906020019092919050505061043c565b005b6100b0610447565b6040518082815260200191505060405180910390f35b6103eb60048036036101008110156100dd57600080fd5b810190808035906020019092919080359060200190929190803590602001909291908035906020019064010000000081111561011857600080fd5b82018360208201111561012a57600080fd5b8035906020019184602083028401116401000000008311171561014c57600080fd5b919080806020026020016040519081016040528093929190818152602001838360200280828437600081840152601f19601f820116905080830192505050505050509192919290803590602001906401000000008111156101ac57600080fd5b8201836020820111156101be57600080fd5b803590602001918460208302840111640100000000831117156101e057600080fd5b919080806020026020016040519081016040528093929190818152602001838360200280828437600081840152601f19601f8201169050808301925050505050505091929192908035906020019064010000000081111561024057600080fd5b82018360208201111561025257600080fd5b8035906020019184602083028401116401000000008311171561027457600080fd5b919080806020026020016040519081016040528093929190818152602001838360200280828437600081840152601f19601f820116905080830192505050505050509192919290803590602001906401000000008111156102d457600080fd5b8201836020820111156102e657600080fd5b8035906020019184602083028401116401000000008311171561030857600080fd5b919080806020026020016040519081016040528093929190818152602001838360200280828437600081840152601f19601f8201169050808301925050505050505091929192908035906020019064010000000081111561036857600080fd5b82018360208201111561037a57600080fd5b8035906020019184602083028401116401000000008311171561039c57600080fd5b919080806020026020016040519081016040528093929190818152602001838360200280828437600081840152601f19601f820116905080830192505050505050509192919290505050610454565b005b6104196004803603602081101561040357600080fd5b8101908080359060200190929190505050610529565b604051808215151515815260200191505060405180910390f35b60008054905090565b600160008190555050565b6000600480549050905090565b876001819055508660028190555085600381905550846004908051906020019061047f9291906105af565b5083600590805190602001906104969291906105af565b5082600690805190602001906104ad9291906105af565b5081600790805190602001906104c49291906105af565b5080600890805190602001906104db9291906105af565b503373ffffffffffffffffffffffffffffffffffffffff167fd061d6a1bcb331cc1e46ac8ec8ad8e737138f6885b3572c0bddc421f6a6a1c8f60405160405180910390a25050505050505050565b600080826001901b60015416141561054457600090506105aa565b600060015460025419166007848154811061055b57fe5b9060005260206000200154161461057557600090506105aa565b6000600154600354166008848154811061058b57fe5b906000526020600020015416146105a557600090506105aa565b600190505b919050565b8280548282559060005260206000209081019282156105eb579160200282015b828111156105ea5782518255916020019190600101906105cf565b5b5090506105f891906105fc565b5090565b61061e91905b8082111561061a576000816000905550600101610602565b5090565b9056fea265627a7a723158208e78e945a0c75d51354eca8f404c8f6871b4fe561b3d7019c5cd9681a52e702b64736f6c63430005100032",
  "source": "pragma solidity 0.5.16;\r\n\r\n// inspired from https://github.com/DCReum/dcreum.github.io/blob/dev/contracts/workflow.sol\r\n\r\ncontract SimpleDCReum {\r\n\r\n  // event declaration\r\n  event LogWorkflowCreation (address indexed creator);\r\n  event LogExecution (uint256 indexed activityId, address indexed executor);\r\n\r\n  // variable declarations. 0=no, 1=yes\r\n  uint256 status; \r\n\r\n  //activity data:\r\n  uint256 included;\r\n  uint256 executed;\r\n  uint256 pending;\r\n\r\n  //relations\r\n  uint256[] includesTo;\r\n  uint256[] excludesTo;\r\n  uint256[] responsesTo;\r\n  uint256[] conditionsFrom;\r\n  uint256[] milestonesFrom;\r\n\r\n  ///////////////// Misc ////////////////////////\r\n\r\n  function checkCliquedIndex(uint256 activityId) public {\r\n    //if (!canExecute(activityId)) {\r\n    //  status = 0;\r\n    //  revert();\r\n    //}\r\n\r\n    //else {\r\n    //  // executed activity\r\n    //  executed = executed | (1<<activityId);\r\n    //  pending = pending & ~(1<<activityId);\r\n\r\n    //  // exclude and include relations pass\r\n    //  // note includes happens after the exclude pass    \r\n    //  included = (included & ~excludesTo[activityId]) | includesTo[activityId];\r\n\r\n    //  // response relations pass\r\n    //  pending = (pending | responsesTo[activityId]);\r\n\r\n    //  emit LogExecution(activityId, msg.sender);\r\n\r\n    //  status = 1;\r\n    //}\r\n    \r\n    \r\n    status = 1;\r\n\r\n  }\r\n\r\n  function getStatus() public view returns (uint256) {\r\n    return status;\r\n  }\r\n  \r\n  function getWkfLength() public view returns (uint256){\r\n    return includesTo.length;\r\n  }\r\n  ///////////////// Utils /////////////////////////\r\n  \r\n  function canExecute (uint256 activityId) public view returns (bool) {\r\n    \r\n    // activity must be included\r\n    if ((included & (1<<activityId)) == 0) return false;\r\n\r\n    // all conditions executed\r\n    if(conditionsFrom[activityId] & (~executed & included) != 0) return false;\r\n\r\n    // no milestones pending\r\n    if(milestonesFrom[activityId] & (pending & included) != 0) return false;\r\n\r\n    return true;\r\n  }\r\n\r\n  ///////////////// Main functions /////////////////////////\r\n\r\n\r\n  function createWorkflow(\r\n    // packed state variables\r\n    uint256 _includedStates,\r\n    uint256 _executedStates,\r\n    uint256 _pendingStates,\r\n\r\n    // relations\r\n    uint256[] memory _includesTo,\r\n    uint256[] memory _excludesTo,\r\n    uint256[] memory _responsesTo,\r\n    uint256[] memory _conditionsFrom,\r\n    uint256[] memory _milestonesFrom\r\n\r\n  ) public {\r\n    // activity data\r\n    included = _includedStates;\r\n    executed = _executedStates;\r\n    pending = _pendingStates;\r\n\r\n    // relations\r\n    includesTo = _includesTo;\r\n    excludesTo = _excludesTo;\r\n    responsesTo = _responsesTo;\r\n    conditionsFrom = _conditionsFrom;\r\n    milestonesFrom = _milestonesFrom;\r\n    \r\n    emit LogWorkflowCreation(msg.sender);\r\n  }\r\n}\r\n",
  "sourcePath": "C:\\Users\\tipha\\source\\repos\\react-cyto\\contracts\\SimpleDCReum.sol",
  "compiler": {
    "name": "solc",
    "version": "0.5.16+commit.9c3226ce.Emscripten.clang"
  },
  "schemaVersion": "3.2.1",
  "updatedAt": "2020-08-11T13:24:26.011Z",
  "devdoc": {
    "methods": {}
  },
  "userdoc": {
    "methods": {
      "canExecute(uint256)": {
        "notice": "////////////// Utils /////////////////////////"
      },
      "checkCliquedIndex(uint256)": {
        "notice": "////////////// Misc ////////////////////////"
      },
      "createWorkflow(uint256,uint256,uint256,uint256[],uint256[],uint256[],uint256[],uint256[])": {
        "notice": "////////////// Main functions /////////////////////////"
      }
    }
  }
}