{
  "contractName": "SimpleDCReum",
  "abi": [
    {
      "anonymous": false,
      "inputs": [
        {
          "indexed": true,
          "internalType": "uint256",
          "name": "activityId",
          "type": "uint256"
        },
        {
          "indexed": true,
          "internalType": "address",
          "name": "executor",
          "type": "address"
        }
      ],
      "name": "LogExecution",
      "type": "event"
    },
    {
      "anonymous": false,
      "inputs": [
        {
          "indexed": true,
          "internalType": "address",
          "name": "creator",
          "type": "address"
        }
      ],
      "name": "LogWorkflowCreation",
      "type": "event"
    },
    {
      "constant": true,
      "inputs": [],
      "name": "getStatus",
      "outputs": [
        {
          "internalType": "uint256",
          "name": "",
          "type": "uint256"
        }
      ],
      "payable": false,
      "stateMutability": "view",
      "type": "function"
    },
    {
      "constant": true,
      "inputs": [],
      "name": "getWkfLength",
      "outputs": [
        {
          "internalType": "uint256",
          "name": "",
          "type": "uint256"
        }
      ],
      "payable": false,
      "stateMutability": "view",
      "type": "function"
    },
    {
      "constant": true,
      "inputs": [],
      "name": "getIncluded",
      "outputs": [
        {
          "internalType": "uint256[]",
          "name": "",
          "type": "uint256[]"
        }
      ],
      "payable": false,
      "stateMutability": "view",
      "type": "function"
    },
    {
      "constant": true,
      "inputs": [],
      "name": "getExecuted",
      "outputs": [
        {
          "internalType": "uint256[]",
          "name": "",
          "type": "uint256[]"
        }
      ],
      "payable": false,
      "stateMutability": "view",
      "type": "function"
    },
    {
      "constant": true,
      "inputs": [],
      "name": "getPending",
      "outputs": [
        {
          "internalType": "uint256[]",
          "name": "",
          "type": "uint256[]"
        }
      ],
      "payable": false,
      "stateMutability": "view",
      "type": "function"
    },
    {
      "constant": true,
      "inputs": [],
      "name": "getCanExecuteCheck",
      "outputs": [
        {
          "internalType": "uint32",
          "name": "",
          "type": "uint32"
        }
      ],
      "payable": false,
      "stateMutability": "view",
      "type": "function"
    },
    {
      "constant": true,
      "inputs": [],
      "name": "getCheCheck",
      "outputs": [
        {
          "internalType": "uint256",
          "name": "",
          "type": "uint256"
        }
      ],
      "payable": false,
      "stateMutability": "view",
      "type": "function"
    },
    {
      "constant": true,
      "inputs": [],
      "name": "getConditionsFrom",
      "outputs": [
        {
          "internalType": "uint256[10][]",
          "name": "",
          "type": "uint256[10][]"
        }
      ],
      "payable": false,
      "stateMutability": "view",
      "type": "function"
    },
    {
      "constant": false,
      "inputs": [
        {
          "internalType": "uint256",
          "name": "activityId",
          "type": "uint256"
        }
      ],
      "name": "canExecute",
      "outputs": [
        {
          "internalType": "bool",
          "name": "",
          "type": "bool"
        }
      ],
      "payable": false,
      "stateMutability": "nonpayable",
      "type": "function"
    },
    {
      "constant": false,
      "inputs": [
        {
          "internalType": "uint256[]",
          "name": "_includedStates",
          "type": "uint256[]"
        },
        {
          "internalType": "uint256[]",
          "name": "_executedStates",
          "type": "uint256[]"
        },
        {
          "internalType": "uint256[]",
          "name": "_pendingStates",
          "type": "uint256[]"
        },
        {
          "internalType": "uint256[10][]",
          "name": "_includesTo",
          "type": "uint256[10][]"
        },
        {
          "internalType": "uint256[10][]",
          "name": "_excludesTo",
          "type": "uint256[10][]"
        },
        {
          "internalType": "uint256[10][]",
          "name": "_responsesTo",
          "type": "uint256[10][]"
        },
        {
          "internalType": "uint256[10][]",
          "name": "_conditionsFrom",
          "type": "uint256[10][]"
        },
        {
          "internalType": "uint256[10][]",
          "name": "_milestonesFrom",
          "type": "uint256[10][]"
        }
      ],
      "name": "createWorkflow",
      "outputs": [],
      "payable": false,
      "stateMutability": "nonpayable",
      "type": "function"
    },
    {
      "constant": false,
      "inputs": [
        {
          "internalType": "uint256",
          "name": "activityId",
          "type": "uint256"
        }
      ],
      "name": "checkCliquedIndex",
      "outputs": [],
      "payable": false,
      "stateMutability": "nonpayable",
      "type": "function"
    }
  ],
  "bytecode": "0x608060405234801561001057600080fd5b506112dc806100206000396000f3fe608060405234801561001057600080fd5b50600436106100a95760003560e01c80634e69d560116100715780634e69d56014610234578063698fee6b14610252578063749f27581461084d57806385a483de1461087b578063af12a57114610899578063cc63604a146108f8576100a9565b80630775c129146100ae57806309be70b2146100cc57806311ae9ed21461012b57806315b872131461018a5780631ac4db5a1461020a575b600080fd5b6100b661093e565b6040518082815260200191505060405180910390f35b6100d4610948565b6040518080602001828103825283818151815260200191508051906020019060200280838360005b838110156101175780820151818401526020810190506100fc565b505050509050019250505060405180910390f35b6101336109a0565b6040518080602001828103825283818151815260200191508051906020019060200280838360005b8381101561017657808201518184015260208101905061015b565b505050509050019250505060405180910390f35b6101926109f8565b60405180806020018281038252838181518152602001915080516000925b818410156101f95782846020026020010151600a60200280838360005b838110156101e85780820151818401526020810190506101cd565b5050505090500192600101926101b0565b925050509250505060405180910390f35b610212610a88565b604051808263ffffffff1663ffffffff16815260200191505060405180910390f35b61023c610aa2565b6040518082815260200191505060405180910390f35b61084b600480360361010081101561026957600080fd5b810190808035906020019064010000000081111561028657600080fd5b82018360208201111561029857600080fd5b803590602001918460208302840111640100000000831117156102ba57600080fd5b919080806020026020016040519081016040528093929190818152602001838360200280828437600081840152601f19601f8201169050808301925050505050505091929192908035906020019064010000000081111561031a57600080fd5b82018360208201111561032c57600080fd5b8035906020019184602083028401116401000000008311171561034e57600080fd5b919080806020026020016040519081016040528093929190818152602001838360200280828437600081840152601f19601f820116905080830192505050505050509192919290803590602001906401000000008111156103ae57600080fd5b8201836020820111156103c057600080fd5b803590602001918460208302840111640100000000831117156103e257600080fd5b919080806020026020016040519081016040528093929190818152602001838360200280828437600081840152601f19601f8201169050808301925050505050505091929192908035906020019064010000000081111561044257600080fd5b82018360208201111561045457600080fd5b803590602001918461014083028401116401000000008311171561047757600080fd5b9190808060200260200160405190810160405280939291908181526020016000905b828210156104f15784848390506101400201600a806020026040519081016040528092919082600a60200280828437600081840152601f19601f82011690508083019250505050505081526020019060010190610499565b505050505091929192908035906020019064010000000081111561051457600080fd5b82018360208201111561052657600080fd5b803590602001918461014083028401116401000000008311171561054957600080fd5b9190808060200260200160405190810160405280939291908181526020016000905b828210156105c35784848390506101400201600a806020026040519081016040528092919082600a60200280828437600081840152601f19601f8201169050808301925050505050508152602001906001019061056b565b50505050509192919290803590602001906401000000008111156105e657600080fd5b8201836020820111156105f857600080fd5b803590602001918461014083028401116401000000008311171561061b57600080fd5b9190808060200260200160405190810160405280939291908181526020016000905b828210156106955784848390506101400201600a806020026040519081016040528092919082600a60200280828437600081840152601f19601f8201169050808301925050505050508152602001906001019061063d565b50505050509192919290803590602001906401000000008111156106b857600080fd5b8201836020820111156106ca57600080fd5b80359060200191846101408302840111640100000000831117156106ed57600080fd5b9190808060200260200160405190810160405280939291908181526020016000905b828210156107675784848390506101400201600a806020026040519081016040528092919082600a60200280828437600081840152601f19601f8201169050808301925050505050508152602001906001019061070f565b505050505091929192908035906020019064010000000081111561078a57600080fd5b82018360208201111561079c57600080fd5b80359060200191846101408302840111640100000000831117156107bf57600080fd5b9190808060200260200160405190810160405280939291908181526020016000905b828210156108395784848390506101400201600a806020026040519081016040528092919082600a60200280828437600081840152601f19601f820116905080830192505050505050815260200190600101906107e1565b50505050509192919290505050610aab565b005b6108796004803603602081101561086357600080fd5b8101908080359060200190929190505050610bb0565b005b610883610e40565b6040518082815260200191505060405180910390f35b6108a1610e4d565b6040518080602001828103825283818151815260200191508051906020019060200280838360005b838110156108e45780820151818401526020810190506108c9565b505050509050019250505060405180910390f35b6109246004803603602081101561090e57600080fd5b8101908080359060200190929190505050610ea5565b604051808215151515815260200191505060405180910390f35b6000600554905090565b6060600180548060200260200160405190810160405280929190818152602001828054801561099657602002820191906000526020600020905b815481526020019060010190808311610982575b5050505050905090565b606060038054806020026020016040519081016040528092919081815260200182805480156109ee57602002820191906000526020600020905b8154815260200190600101908083116109da575b5050505050905090565b60606009805480602002602001604051908101604052809291908181526020016000905b82821015610a7f57838290600052602060002090600a0201600a806020026040519081016040528092919082600a8015610a6b576020028201915b815481526020019060010190808311610a57575b505050505081526020019060010190610a1c565b50505050905090565b6000600460009054906101000a900463ffffffff16905090565b60008054905090565b8760019080519060200190610ac1929190611135565b508660029080519060200190610ad8929190611135565b508560039080519060200190610aef929190611135565b508460069080519060200190610b06929190611182565b508360079080519060200190610b1d929190611182565b508260089080519060200190610b34929190611182565b508160099080519060200190610b4b929190611182565b5080600a9080519060200190610b62929190611182565b503373ffffffffffffffffffffffffffffffffffffffff167fd061d6a1bcb331cc1e46ac8ec8ad8e737138f6885b3572c0bddc421f6a6a1c8f60405160405180910390a25050505050505050565b610bb981610ea5565b610bc95760008081905550610e3d565b600160028281548110610bd857fe5b9060005260206000200181905550600060038281548110610bf557fe5b9060005260206000200181905550610c0b6111e0565b60078281548110610c1857fe5b90600052602060002090600a0201600a806020026040519081016040528092919082600a8015610c5d576020028201915b815481526020019060010190808311610c49575b50505050509050610c6c6111e0565b60068381548110610c7957fe5b90600052602060002090600a0201600a806020026040519081016040528092919082600a8015610cbe576020028201915b815481526020019060010190808311610caa575b50505050509050610ccd6111e0565b60088481548110610cda57fe5b90600052602060002090600a0201600a806020026040519081016040528092919082600a8015610d1f576020028201915b815481526020019060010190808311610d0b575b5050505050905060008090505b600780549050811015610dec5760018482600a8110610d4757fe5b602002015114158015610d6a575060018382600a8110610d6357fe5b6020020151145b15610d8c576001808281548110610d7d57fe5b90600052602060002001819055505b60018282600a8110610d9a57fe5b60200201511415610ddf57600160038281548110610db457fe5b90600052602060002001819055506001808281548110610dd057fe5b90600052602060002001819055505b8080600101915050610d2c565b503373ffffffffffffffffffffffffffffffffffffffff16847f7fab02713bd9109308be361c308de925c6d25f0720e51b753f8f05aeb310565e60405160405180910390a360016000819055505050505b50565b6000600680549050905090565b60606002805480602002602001604051908101604052809291908181526020018280548015610e9b57602002820191906000526020600020905b815481526020019060010190808311610e87575b5050505050905090565b60008060018381548110610eb557fe5b90600052602060002001541415610ef1576001600460006101000a81548163ffffffff021916908363ffffffff16021790555060009050611130565b60008090505b600980549050811015610ffc57610f0c6111e0565b60098281548110610f1957fe5b90600052602060002090600a0201600a806020026040519081016040528092919082600a8015610f5e576020028201915b815481526020019060010190808311610f4a575b5050505050905060018185600a8110610f7357fe5b60200201511415610fee57600060028381548110610f8d57fe5b9060005260206000200154148015610fbb57506001808381548110610fae57fe5b9060005260206000200154145b15610fed576002600460006101000a81548163ffffffff021916908363ffffffff160217905550600092505050611130565b5b508080600101915050610ef7565b5060008090505b600a80549050811015611108576110186111e0565b600a828154811061102557fe5b90600052602060002090600a0201600a806020026040519081016040528092919082600a801561106a576020028201915b815481526020019060010190808311611056575b5050505050905060018185600a811061107f57fe5b602002015114156110fa5760016003838154811061109957fe5b90600052602060002001541480156110c7575060018083815481106110ba57fe5b9060005260206000200154145b156110f9576003600460006101000a81548163ffffffff021916908363ffffffff160217905550600092505050611130565b5b508080600101915050611003565b506000600460006101000a81548163ffffffff021916908363ffffffff160217905550600190505b919050565b828054828255906000526020600020908101928215611171579160200282015b82811115611170578251825591602001919060010190611155565b5b50905061117e9190611203565b5090565b82805482825590600052602060002090600a0281019282156111cf579160200282015b828111156111ce5782518290600a6111be929190611228565b50916020019190600a01906111a5565b5b5090506111dc9190611268565b5090565b604051806101400160405280600a90602082028038833980820191505090505090565b61122591905b80821115611221576000816000905550600101611209565b5090565b90565b82600a8101928215611257579160200282015b8281111561125657825182559160200191906001019061123b565b5b5090506112649190611203565b5090565b61129191905b8082111561128d57600081816112849190611294565b50600a0161126e565b5090565b90565b5080600a01906112a49190611203565b5056fea265627a7a72315820ca29a5d8e437f557c8ef3681abc47b2f450291623b39ab088c867d1f4cb61d8a64736f6c63430005100032",
  "source": "pragma solidity 0.5.16;\r\n\r\n// inspired from https://github.com/DCReum/dcreum.github.io/blob/dev/contracts/workflow.sol\r\n\r\ncontract SimpleDCReum {\r\n\r\n  // event declaration\r\n  event LogWorkflowCreation (address indexed creator);\r\n  event LogExecution (uint256 indexed activityId, address indexed executor);\r\n\r\n  // variable declarations. 0=no, 1=yes\r\n  uint256 status; \r\n\r\n  //activity data:\r\n  //string[] activityNames;\r\n  uint256[] included;\r\n  uint256[] executed;\r\n  uint256[] pending;\r\n\r\n  uint32 canExecuteCheck;\r\n  uint256 checheck;\r\n  //relations\r\n  uint256[10][] includesTo;\r\n  uint256[10][] excludesTo;\r\n  uint256[10][] responsesTo;\r\n  uint256[10][] conditionsFrom;\r\n  uint256[10][] milestonesFrom;\r\n\r\n\r\n  ///////////////// Misc ////////////////////////\r\n\r\n  function getStatus() public view returns (uint256) {\r\n    return status;\r\n  }\r\n  \r\n  function getWkfLength() public view returns (uint256){\r\n    return includesTo.length;\r\n  }\r\n\r\n  function getIncluded() public view returns (uint256[] memory){\r\n    return included;\r\n  }\r\n  function getExecuted() public view returns (uint256[] memory){\r\n    return executed;\r\n  }\r\n  function getPending() public view returns (uint256[] memory){\r\n    return pending;\r\n  }\r\n\r\n  function getCanExecuteCheck() public view returns (uint32){\r\n    return canExecuteCheck;\r\n  }\r\n\r\n  function getCheCheck() public view returns (uint256){\r\n    return checheck;\r\n  }\r\n\r\n  function getConditionsFrom() public view returns (uint256[10][] memory){\r\n    return conditionsFrom;\r\n  }\r\n\r\n  ///////////////// Utils /////////////////////////\r\n  \r\n  function canExecute (uint256 activityId) public returns (bool) {\r\n    \r\n    // activity must be included\r\n    if(included[activityId] == 0){\r\n      canExecuteCheck = 1;\r\n      return false;\r\n    } \r\n\r\n    // all conditions executed\r\n    for(uint id=0; id<conditionsFrom.length;id++){\r\n      uint256[10] memory conditionsRow = conditionsFrom[id]; \r\n      if(conditionsRow[activityId]==1){\r\n        if((executed[id]==0) && (included[id]==1)){\r\n          canExecuteCheck = 2;\r\n          return false;\r\n        } \r\n      }\r\n    }\r\n\r\n    // no milestones pending\r\n    for(uint id=0; id<milestonesFrom.length;id++){\r\n      uint256[10] memory milestonesRow = milestonesFrom[id]; \r\n      if(milestonesRow[activityId]==1){\r\n        if((pending[id]==1) && (included[id]==1)){\r\n          canExecuteCheck = 3;\r\n          return false;\r\n        } \r\n      }\r\n    }\r\n\r\n    canExecuteCheck = 0;\r\n    return true;\r\n  }\r\n\r\n  ///////////////// Main functions /////////////////////////\r\n\r\n\r\n  function createWorkflow(\r\n    // packed state variables\r\n    uint256[] memory _includedStates,\r\n    uint256[] memory _executedStates,\r\n    uint256[] memory _pendingStates,\r\n    //bytes[] memory _activityNames,\r\n\r\n    // relations\r\n    uint256[10][] memory _includesTo,\r\n    uint256[10][] memory _excludesTo,\r\n    uint256[10][] memory _responsesTo,\r\n    uint256[10][] memory _conditionsFrom,\r\n    uint256[10][] memory _milestonesFrom\r\n  ) public {\r\n    // activity data\r\n    //activityNames = _activityNames;\r\n    included = _includedStates;\r\n    executed = _executedStates;\r\n    pending = _pendingStates;\r\n\r\n    // relations\r\n    includesTo = _includesTo;\r\n    excludesTo = _excludesTo;\r\n    responsesTo = _responsesTo;\r\n    conditionsFrom = _conditionsFrom;\r\n    milestonesFrom = _milestonesFrom;\r\n    \r\n    emit LogWorkflowCreation(msg.sender);\r\n  }\r\n\r\n\r\n\r\nfunction checkCliquedIndex(uint256 activityId) public {\r\n    //  function checkCliquedIndex(uint256 activityId) public {\r\n    if (!canExecute(activityId)) {\r\n      status = 0;\r\n      //revert();\r\n    }\r\n    else {\r\n      // executed activity\r\n      executed[activityId] = 1;\r\n      pending[activityId] = 0; \r\n\r\n      uint256[10] memory exclude_vect_check =  excludesTo[activityId];\r\n      uint256[10] memory include_vect_check =  includesTo[activityId];\r\n      uint256[10] memory response_vect_check =  responsesTo[activityId];\r\n\r\n      for(uint id=0; id<excludesTo.length;id++){\r\n        // exclude and include relations pass\r\n        // note includes happens after the exclude pass    \r\n        // included = (included & ~excludesTo[activityId]) | includesTo[activityId];\r\n        if((exclude_vect_check[id]!=1) && (include_vect_check[id]==1)){\r\n          included[id]=1;\r\n        }\r\n\r\n        // response relations pass\r\n        // pending = (pending | responsesTo[activityId]);\r\n        if (response_vect_check[id] == 1){\r\n          pending[id]=1;\r\n          included[id]=1;\r\n        }\r\n      }\r\n\r\n      emit LogExecution(activityId, msg.sender);\r\n\r\n      status = 1;\r\n    }\r\n  }\r\n}\r\n",
  "sourcePath": "C:\\Users\\tipha\\source\\repos\\react-cyto\\contracts\\SimpleDCReum.sol",
  "compiler": {
    "name": "solc",
    "version": "0.5.16+commit.9c3226ce.Emscripten.clang"
  },
  "schemaVersion": "3.2.1",
  "updatedAt": "2020-08-26T13:52:02.962Z",
  "networkType": "ethereum",
  "devdoc": {
    "methods": {}
  },
  "userdoc": {
    "methods": {
      "canExecute(uint256)": {
        "notice": "////////////// Utils /////////////////////////"
      },
      "createWorkflow(uint256[],uint256[],uint256[],uint256[10][],uint256[10][],uint256[10][],uint256[10][],uint256[10][])": {
        "notice": "////////////// Main functions /////////////////////////"
      },
      "getStatus()": {
        "notice": "////////////// Misc ////////////////////////"
      }
    }
  }
}