{
  "contractName": "SimpleDCReum",
  "abi": [
    {
      "anonymous": false,
      "inputs": [
        {
          "indexed": true,
          "internalType": "uint256",
          "name": "activityId",
          "type": "uint256"
        },
        {
          "indexed": true,
          "internalType": "address",
          "name": "executor",
          "type": "address"
        }
      ],
      "name": "LogExecution",
      "type": "event"
    },
    {
      "anonymous": false,
      "inputs": [
        {
          "indexed": true,
          "internalType": "address",
          "name": "creator",
          "type": "address"
        }
      ],
      "name": "LogWorkflowCreation",
      "type": "event"
    },
    {
      "constant": true,
      "inputs": [],
      "name": "getStatus",
      "outputs": [
        {
          "internalType": "uint256",
          "name": "",
          "type": "uint256"
        }
      ],
      "payable": false,
      "stateMutability": "view",
      "type": "function"
    },
    {
      "constant": true,
      "inputs": [],
      "name": "getWkfLength",
      "outputs": [
        {
          "internalType": "uint256",
          "name": "",
          "type": "uint256"
        }
      ],
      "payable": false,
      "stateMutability": "view",
      "type": "function"
    },
    {
      "constant": true,
      "inputs": [],
      "name": "getIncluded",
      "outputs": [
        {
          "internalType": "uint256[]",
          "name": "",
          "type": "uint256[]"
        }
      ],
      "payable": false,
      "stateMutability": "view",
      "type": "function"
    },
    {
      "constant": true,
      "inputs": [],
      "name": "getExecuted",
      "outputs": [
        {
          "internalType": "uint256[]",
          "name": "",
          "type": "uint256[]"
        }
      ],
      "payable": false,
      "stateMutability": "view",
      "type": "function"
    },
    {
      "constant": true,
      "inputs": [],
      "name": "getPending",
      "outputs": [
        {
          "internalType": "uint256[]",
          "name": "",
          "type": "uint256[]"
        }
      ],
      "payable": false,
      "stateMutability": "view",
      "type": "function"
    },
    {
      "constant": true,
      "inputs": [],
      "name": "getCanExecuteCheck",
      "outputs": [
        {
          "internalType": "uint32",
          "name": "",
          "type": "uint32"
        }
      ],
      "payable": false,
      "stateMutability": "view",
      "type": "function"
    },
    {
      "constant": true,
      "inputs": [],
      "name": "getCheCheck",
      "outputs": [
        {
          "internalType": "uint256",
          "name": "",
          "type": "uint256"
        }
      ],
      "payable": false,
      "stateMutability": "view",
      "type": "function"
    },
    {
      "constant": true,
      "inputs": [],
      "name": "getConditionsFrom",
      "outputs": [
        {
          "internalType": "uint256[][]",
          "name": "",
          "type": "uint256[][]"
        }
      ],
      "payable": false,
      "stateMutability": "view",
      "type": "function"
    },
    {
      "constant": true,
      "inputs": [],
      "name": "getHashes",
      "outputs": [
        {
          "internalType": "bytes[]",
          "name": "",
          "type": "bytes[]"
        }
      ],
      "payable": false,
      "stateMutability": "view",
      "type": "function"
    },
    {
      "constant": false,
      "inputs": [
        {
          "internalType": "uint256",
          "name": "activityId",
          "type": "uint256"
        }
      ],
      "name": "canExecute",
      "outputs": [
        {
          "internalType": "bool",
          "name": "",
          "type": "bool"
        }
      ],
      "payable": false,
      "stateMutability": "nonpayable",
      "type": "function"
    },
    {
      "constant": false,
      "inputs": [
        {
          "internalType": "uint256[]",
          "name": "_includedStates",
          "type": "uint256[]"
        },
        {
          "internalType": "uint256[]",
          "name": "_executedStates",
          "type": "uint256[]"
        },
        {
          "internalType": "uint256[]",
          "name": "_pendingStates",
          "type": "uint256[]"
        },
        {
          "internalType": "uint256[][]",
          "name": "_includesTo",
          "type": "uint256[][]"
        },
        {
          "internalType": "uint256[][]",
          "name": "_excludesTo",
          "type": "uint256[][]"
        },
        {
          "internalType": "uint256[][]",
          "name": "_responsesTo",
          "type": "uint256[][]"
        },
        {
          "internalType": "uint256[][]",
          "name": "_conditionsFrom",
          "type": "uint256[][]"
        },
        {
          "internalType": "uint256[][]",
          "name": "_milestonesFrom",
          "type": "uint256[][]"
        }
      ],
      "name": "createWorkflow",
      "outputs": [],
      "payable": false,
      "stateMutability": "nonpayable",
      "type": "function"
    },
    {
      "constant": false,
      "inputs": [
        {
          "internalType": "uint256",
          "name": "activityId",
          "type": "uint256"
        },
        {
          "internalType": "bytes",
          "name": "ipfsHash",
          "type": "bytes"
        }
      ],
      "name": "checkCliquedIndex",
      "outputs": [],
      "payable": false,
      "stateMutability": "nonpayable",
      "type": "function"
    }
  ],
  "bytecode": "0x608060405234801561001057600080fd5b50611967806100206000396000f3fe608060405234801561001057600080fd5b50600436106100b45760003560e01c80634e69d560116100715780634e69d5601461016d578063683617ba1461018b57806385a483de146101a7578063af12a571146101c5578063cc63604a146101e3578063ebc4ec3e14610213576100b4565b80630775c129146100b957806309be70b2146100d757806311ae9ed2146100f557806315b87213146101135780631ac4db5a146101315780634245d48e1461014f575b600080fd5b6100c161022f565b6040516100ce919061168d565b60405180910390f35b6100df610239565b6040516100ec9190611650565b60405180910390f35b6100fd610291565b60405161010a9190611650565b60405180910390f35b61011b6102e9565b604051610128919061160c565b60405180910390f35b610139610388565b60405161014691906116a8565b60405180910390f35b6101576103a2565b604051610164919061162e565b60405180910390f35b61017561048b565b604051610182919061168d565b60405180910390f35b6101a560048036036101a0919081019061135d565b610494565b005b6101af610836565b6040516101bc919061168d565b60405180910390f35b6101cd610843565b6040516101da9190611650565b60405180910390f35b6101fd60048036036101f89190810190611334565b61089b565b60405161020a9190611672565b60405180910390f35b61022d600480360361022891908101906111c2565b610b45565b005b6000600754905090565b6060600380548060200260200160405190810160405280929190818152602001828054801561028757602002820191906000526020600020905b815481526020019060010190808311610273575b5050505050905090565b606060058054806020026020016040519081016040528092919081815260200182805480156102df57602002820191906000526020600020905b8154815260200190600101908083116102cb575b5050505050905090565b6060600b805480602002602001604051908101604052809291908181526020016000905b8282101561037f5783829060005260206000200180548060200260200160405190810160405280929190818152602001828054801561036b57602002820191906000526020600020905b815481526020019060010190808311610357575b50505050508152602001906001019061030d565b50505050905090565b6000600660009054906101000a900463ffffffff16905090565b60606001805480602002602001604051908101604052809291908181526020016000905b82821015610482578382906000526020600020018054600181600116156101000203166002900480601f01602080910402602001604051908101604052809291908181526020018280546001816001161561010002031660029004801561046e5780601f106104435761010080835404028352916020019161046e565b820191906000526020600020905b81548152906001019060200180831161045157829003601f168201915b5050505050815260200190600101906103c6565b50505050905090565b60008054905090565b61049d8261089b565b6104ad5760008081905550610832565b6001600483815481106104bc57fe5b90600052602060002001819055506000600583815481106104d957fe5b906000526020600020018190555080600183815481106104f557fe5b906000526020600020019080519060200190610512929190610c9f565b5060606009838154811061052257fe5b9060005260206000200180548060200260200160405190810160405280929190818152602001828054801561057657602002820191906000526020600020905b815481526020019060010190808311610562575b505050505090506060600a848154811061058c57fe5b906000526020600020018054806020026020016040519081016040528092919081815260200182805480156105e057602002820191906000526020600020905b8154815260200190600101908083116105cc575b505050505090506060600885815481106105f657fe5b9060005260206000200180548060200260200160405190810160405280929190818152602001828054801561064a57602002820191906000526020600020905b815481526020019060010190808311610636575b505050505090506060600b868154811061066057fe5b906000526020600020018054806020026020016040519081016040528092919081815260200182805480156106b457602002820191906000526020600020905b8154815260200190600101908083116106a0575b5050505050905060008090505b815181101561070e5760018282815181106106d857fe5b602002602001015114156107015760018382815181106106f457fe5b6020026020010181815250505b80806001019150506106c1565b5060008090505b6009805490508110156107e057600185828151811061073057fe5b6020026020010151141580156107595750600183828151811061074f57fe5b6020026020010151145b1561077c5760016003828154811061076d57fe5b90600052602060002001819055505b600184828151811061078a57fe5b602002602001015114156107d3576001600582815481106107a757fe5b90600052602060002001819055506001600382815481106107c457fe5b90600052602060002001819055505b8080600101915050610715565b503373ffffffffffffffffffffffffffffffffffffffff16867f7fab02713bd9109308be361c308de925c6d25f0720e51b753f8f05aeb310565e60405160405180910390a36001600081905550505050505b5050565b6000600880549050905090565b6060600480548060200260200160405190810160405280929190818152602001828054801561089157602002820191906000526020600020905b81548152602001906001019080831161087d575b5050505050905090565b600080600383815481106108ab57fe5b906000526020600020015414156108e7576001600660006101000a81548163ffffffff021916908363ffffffff16021790555060009050610b40565b60008090505b600b805490508110156109ff576060600b828154811061090957fe5b9060005260206000200180548060200260200160405190810160405280929190818152602001828054801561095d57602002820191906000526020600020905b815481526020019060010190808311610949575b50505050509050600181858151811061097257fe5b602002602001015114156109f15760006004838154811061098f57fe5b90600052602060002001541480156109be57506001600383815481106109b157fe5b9060005260206000200154145b156109f0576002600660006101000a81548163ffffffff021916908363ffffffff160217905550600092505050610b40565b5b5080806001019150506108ed565b5060008090505b600c80549050811015610b18576060600c8281548110610a2257fe5b90600052602060002001805480602002602001604051908101604052809291908181526020018280548015610a7657602002820191906000526020600020905b815481526020019060010190808311610a62575b505050505090506001818581518110610a8b57fe5b60200260200101511415610b0a57600160058381548110610aa857fe5b9060005260206000200154148015610ad75750600160038381548110610aca57fe5b9060005260206000200154145b15610b09576003600660006101000a81548163ffffffff021916908363ffffffff160217905550600092505050610b40565b5b508080600101915050610a06565b506000600660006101000a81548163ffffffff021916908363ffffffff160217905550600190505b919050565b8751600281905550600254604051908082528060200260200182016040528015610b8357816020015b6060815260200190600190039081610b6e5790505b5060019080519060200190610b99929190610d1f565b508760039080519060200190610bb0929190610d7f565b508660049080519060200190610bc7929190610d7f565b508560059080519060200190610bde929190610d7f565b508460089080519060200190610bf5929190610dcc565b508360099080519060200190610c0c929190610dcc565b5082600a9080519060200190610c23929190610dcc565b5081600b9080519060200190610c3a929190610dcc565b5080600c9080519060200190610c51929190610dcc565b503373ffffffffffffffffffffffffffffffffffffffff167fd061d6a1bcb331cc1e46ac8ec8ad8e737138f6885b3572c0bddc421f6a6a1c8f60405160405180910390a25050505050505050565b828054600181600116156101000203166002900490600052602060002090601f016020900481019282601f10610ce057805160ff1916838001178555610d0e565b82800160010185558215610d0e579182015b82811115610d0d578251825591602001919060010190610cf2565b5b509050610d1b9190610e2c565b5090565b828054828255906000526020600020908101928215610d6e579160200282015b82811115610d6d578251829080519060200190610d5d929190610e51565b5091602001919060010190610d3f565b5b509050610d7b9190610ed1565b5090565b828054828255906000526020600020908101928215610dbb579160200282015b82811115610dba578251825591602001919060010190610d9f565b5b509050610dc89190610e2c565b5090565b828054828255906000526020600020908101928215610e1b579160200282015b82811115610e1a578251829080519060200190610e0a929190610efd565b5091602001919060010190610dec565b5b509050610e289190610f4a565b5090565b610e4e91905b80821115610e4a576000816000905550600101610e32565b5090565b90565b828054600181600116156101000203166002900490600052602060002090601f016020900481019282601f10610e9257805160ff1916838001178555610ec0565b82800160010185558215610ec0579182015b82811115610ebf578251825591602001919060010190610ea4565b5b509050610ecd9190610e2c565b5090565b610efa91905b80821115610ef65760008181610eed9190610f76565b50600101610ed7565b5090565b90565b828054828255906000526020600020908101928215610f39579160200282015b82811115610f38578251825591602001919060010190610f1d565b5b509050610f469190610e2c565b5090565b610f7391905b80821115610f6f5760008181610f669190610fbe565b50600101610f50565b5090565b90565b50805460018160011615610100020316600290046000825580601f10610f9c5750610fbb565b601f016020900490600052602060002090810190610fba9190610e2c565b5b50565b5080546000825590600052602060002090810190610fdc9190610e2c565b50565b600082601f830112610ff057600080fd5b8135611003610ffe826116f0565b6116c3565b9150818183526020840193506020810190508360005b83811015611049578135860161102f8882611053565b845260208401935060208301925050600181019050611019565b5050505092915050565b600082601f83011261106457600080fd5b813561107761107282611718565b6116c3565b9150818183526020840193506020810190508385602084028201111561109c57600080fd5b60005b838110156110cc57816110b288826111ad565b84526020840193506020830192505060018101905061109f565b5050505092915050565b600082601f8301126110e757600080fd5b81356110fa6110f582611740565b6116c3565b9150818183526020840193506020810190508385602084028201111561111f57600080fd5b60005b8381101561114f578161113588826111ad565b845260208401935060208301925050600181019050611122565b5050505092915050565b600082601f83011261116a57600080fd5b813561117d61117882611768565b6116c3565b9150808252602083016020830185838301111561119957600080fd5b6111a48382846118ba565b50505092915050565b6000813590506111bc8161190d565b92915050565b600080600080600080600080610100898b0312156111df57600080fd5b600089013567ffffffffffffffff8111156111f957600080fd5b6112058b828c016110d6565b985050602089013567ffffffffffffffff81111561122257600080fd5b61122e8b828c016110d6565b975050604089013567ffffffffffffffff81111561124b57600080fd5b6112578b828c016110d6565b965050606089013567ffffffffffffffff81111561127457600080fd5b6112808b828c01610fdf565b955050608089013567ffffffffffffffff81111561129d57600080fd5b6112a98b828c01610fdf565b94505060a089013567ffffffffffffffff8111156112c657600080fd5b6112d28b828c01610fdf565b93505060c089013567ffffffffffffffff8111156112ef57600080fd5b6112fb8b828c01610fdf565b92505060e089013567ffffffffffffffff81111561131857600080fd5b6113248b828c01610fdf565b9150509295985092959890939650565b60006020828403121561134657600080fd5b6000611354848285016111ad565b91505092915050565b6000806040838503121561137057600080fd5b600061137e858286016111ad565b925050602083013567ffffffffffffffff81111561139b57600080fd5b6113a785828601611159565b9150509250929050565b60006113bd8383611539565b905092915050565b60006113d183836115a6565b905092915050565b60006113e583836115df565b60208301905092915050565b60006113fc826117d4565b611406818561183f565b93508360208202850161141885611794565b8060005b85811015611454578484038952815161143585826113b1565b94506114408361180b565b925060208a0199505060018101905061141c565b50829750879550505050505092915050565b6000611471826117df565b61147b8185611850565b93508360208202850161148d856117a4565b8060005b858110156114c957848403895281516114aa85826113c5565b94506114b583611818565b925060208a01995050600181019050611491565b50829750879550505050505092915050565b60006114e6826117f5565b6114f08185611872565b93506114fb836117c4565b8060005b8381101561152c57815161151388826113d9565b975061151e83611832565b9250506001810190506114ff565b5085935050505092915050565b6000611544826117ea565b61154e8185611861565b9350611559836117b4565b8060005b8381101561158a57815161157188826113d9565b975061157c83611825565b92505060018101905061155d565b5085935050505092915050565b6115a081611894565b82525050565b60006115b182611800565b6115bb8185611883565b93506115cb8185602086016118c9565b6115d4816118fc565b840191505092915050565b6115e8816118a0565b82525050565b6115f7816118a0565b82525050565b611606816118aa565b82525050565b6000602082019050818103600083015261162681846113f1565b905092915050565b600060208201905081810360008301526116488184611466565b905092915050565b6000602082019050818103600083015261166a81846114db565b905092915050565b60006020820190506116876000830184611597565b92915050565b60006020820190506116a260008301846115ee565b92915050565b60006020820190506116bd60008301846115fd565b92915050565b6000604051905081810181811067ffffffffffffffff821117156116e657600080fd5b8060405250919050565b600067ffffffffffffffff82111561170757600080fd5b602082029050602081019050919050565b600067ffffffffffffffff82111561172f57600080fd5b602082029050602081019050919050565b600067ffffffffffffffff82111561175757600080fd5b602082029050602081019050919050565b600067ffffffffffffffff82111561177f57600080fd5b601f19601f8301169050602081019050919050565b6000819050602082019050919050565b6000819050602082019050919050565b6000819050602082019050919050565b6000819050602082019050919050565b600081519050919050565b600081519050919050565b600081519050919050565b600081519050919050565b600081519050919050565b6000602082019050919050565b6000602082019050919050565b6000602082019050919050565b6000602082019050919050565b600082825260208201905092915050565b600082825260208201905092915050565b600082825260208201905092915050565b600082825260208201905092915050565b600082825260208201905092915050565b60008115159050919050565b6000819050919050565b600063ffffffff82169050919050565b82818337600083830152505050565b60005b838110156118e75780820151818401526020810190506118cc565b838111156118f6576000848401525b50505050565b6000601f19601f8301169050919050565b611916816118a0565b811461192157600080fd5b5056fea365627a7a72315820ba4a080365730d50ba23401180d0ecd4f3f8f87a2878d724d211b826188929f06c6578706572696d656e74616cf564736f6c63430005100040",
  "source": "//pragma solidity 0.5.10;\npragma experimental ABIEncoderV2;\n\n// inspired from https://github.com/DCReum/dcreum.github.io/blob/dev/contracts/workflow.sol\n\ncontract SimpleDCReum {\n\n  // event declaration\n  event LogWorkflowCreation (address indexed creator);\n  event LogExecution (uint256 indexed activityId, address indexed executor);\n\n  // variable declarations. 0=no, 1=yes\n  uint256 status; \n\n  //activity data:\n  //string[] activityNames;\n  bytes[] ipfsActivityHashes;\n  uint numActivities;\n\n  uint256[] included;\n  uint256[] executed;\n  uint256[] pending;\n\n  uint32 canExecuteCheck;\n  uint256 checheck;\n  //relations\n  uint256[][] includesTo;\n  uint256[][] excludesTo;\n  uint256[][] responsesTo;\n  uint256[][] conditionsFrom;\n  uint256[][] milestonesFrom;\n\n\n  ///////////////// Misc ////////////////////////\n\n  function getStatus() public view returns (uint256) {\n    return status;\n  }\n  \n  function getWkfLength() public view returns (uint256){\n    return includesTo.length;\n  }\n\n  function getIncluded() public view returns (uint256[] memory){\n    return included;\n  }\n  function getExecuted() public view returns (uint256[] memory){\n    return executed;\n  }\n  function getPending() public view returns (uint256[] memory){\n    return pending;\n  }\n\n  function getCanExecuteCheck() public view returns (uint32){\n    return canExecuteCheck;\n  }\n\n  function getCheCheck() public view returns (uint256){\n    return checheck;\n  }\n\n  function getConditionsFrom() public view returns (uint256[][] memory){\n    return conditionsFrom;\n  }\n\n  function getHashes() public view returns (bytes[] memory) {\n    return ipfsActivityHashes;\n  }\n\n\n  ///////////////// Utils /////////////////////////\n  \n  function canExecute (uint256 activityId) public returns (bool) {\n    \n    // activity must be included\n    if(included[activityId] == 0){\n      canExecuteCheck = 1;\n      return false;\n    } \n\n    // all conditions executed\n    for(uint id=0; id<conditionsFrom.length;id++){\n      uint256[] memory conditionsRow = conditionsFrom[id]; \n      if(conditionsRow[activityId]==1){\n        if((executed[id]==0) && (included[id]==1)){\n          canExecuteCheck = 2;\n          return false;\n        } \n      }\n    }\n\n    // no milestones pending\n    for(uint id=0; id<milestonesFrom.length;id++){\n      uint256[] memory milestonesRow = milestonesFrom[id]; \n      if(milestonesRow[activityId]==1){\n        if((pending[id]==1) && (included[id]==1)){\n          canExecuteCheck = 3;\n          return false;\n        } \n      }\n    }\n\n    canExecuteCheck = 0;\n    return true;\n  }\n\n  ///////////////// Main functions /////////////////////////\n\n\n  function createWorkflow(\n\n    // packed state variables\n    uint256[] memory _includedStates,\n    uint256[] memory _executedStates,\n    uint256[] memory _pendingStates,\n    //bytes[] memory _activityNames,\n\n    // relations\n    uint256[][] memory _includesTo,\n    uint256[][] memory _excludesTo,\n    uint256[][] memory _responsesTo,\n    uint256[][] memory _conditionsFrom,\n    uint256[][] memory _milestonesFrom\n  ) public {\n    // activity data\n    //activityNames = _activityNames;\n    numActivities = _includedStates.length;\n    ipfsActivityHashes = new bytes[](numActivities);\n\n    included = _includedStates;\n    executed = _executedStates;\n    pending = _pendingStates;\n\n    // relations\n    includesTo = _includesTo;\n    excludesTo = _excludesTo;\n    responsesTo = _responsesTo;\n    conditionsFrom = _conditionsFrom;\n    milestonesFrom = _milestonesFrom;\n    \n    emit LogWorkflowCreation(msg.sender);\n  }\n\n\n\nfunction checkCliquedIndex(uint256 activityId, bytes memory ipfsHash) public {\n    if (!canExecute(activityId)) {\n      status = 0;\n      //revert();\n    }\n    else {\n      // executed activity\n      executed[activityId] = 1;\n      pending[activityId] = 0; \n      ipfsActivityHashes[activityId] = ipfsHash; \n\n      uint256[] memory exclude_vect_check =  excludesTo[activityId];\n      uint256[] memory response_vect_check =  responsesTo[activityId];\n\n      // add include relations\n      uint256[] memory include_vect_check =  includesTo[activityId];\n\n      // update with condition relations ok\n      uint256[] memory conditionsTo =  conditionsFrom[activityId]; //extract row condition \n      for (uint id=0; id<conditionsTo.length;id++){\n        if(conditionsTo[id]==1){\n            include_vect_check[id]=1;\n        }\n      }\n\n      for(uint id=0; id<excludesTo.length;id++){\n        // exclude and include relations pass\n        // note includes happens after the exclude pass    \n        // included = (included & ~excludesTo[activityId]) | includesTo[activityId];\n        if((exclude_vect_check[id]!=1) && (include_vect_check[id]==1)){\n          included[id]=1;\n        }\n\n        // response relations pass\n        // pending = (pending | responsesTo[activityId]);\n        if (response_vect_check[id] == 1){\n          pending[id]=1;\n          included[id]=1;\n        }\n      }\n\n      emit LogExecution(activityId, msg.sender);\n\n      status = 1;\n    }\n  }\n}\n\n",
  "sourcePath": "/home/vtlr2002/source/react-cyto/contracts/SimpleDCReum.sol",
  "compiler": {
    "name": "solc",
    "version": "0.5.16+commit.9c3226ce.Emscripten.clang"
  },
  "schemaVersion": "3.2.4",
  "updatedAt": "2020-11-02T18:10:25.250Z",
  "networkType": "ethereum",
  "devdoc": {
    "methods": {}
  },
  "userdoc": {
    "methods": {
      "canExecute(uint256)": {
        "notice": "////////////// Utils /////////////////////////"
      },
      "createWorkflow(uint256[],uint256[],uint256[],uint256[][],uint256[][],uint256[][],uint256[][],uint256[][])": {
        "notice": "////////////// Main functions /////////////////////////"
      },
      "getStatus()": {
        "notice": "////////////// Misc ////////////////////////"
      }
    }
  }
}