{
  "contractName": "SimpleDCReum",
  "abi": [
    {
      "anonymous": false,
      "inputs": [
        {
          "indexed": true,
          "internalType": "uint256",
          "name": "activityId",
          "type": "uint256"
        },
        {
          "indexed": true,
          "internalType": "address",
          "name": "executor",
          "type": "address"
        }
      ],
      "name": "LogExecution",
      "type": "event"
    },
    {
      "anonymous": false,
      "inputs": [
        {
          "indexed": true,
          "internalType": "address",
          "name": "creator",
          "type": "address"
        }
      ],
      "name": "LogWorkflowCreation",
      "type": "event"
    },
    {
      "constant": true,
      "inputs": [],
      "name": "getStatus",
      "outputs": [
        {
          "internalType": "uint256",
          "name": "",
          "type": "uint256"
        }
      ],
      "payable": false,
      "stateMutability": "view",
      "type": "function"
    },
    {
      "constant": true,
      "inputs": [],
      "name": "getWkfLength",
      "outputs": [
        {
          "internalType": "uint256",
          "name": "",
          "type": "uint256"
        }
      ],
      "payable": false,
      "stateMutability": "view",
      "type": "function"
    },
    {
      "constant": true,
      "inputs": [],
      "name": "getIncluded",
      "outputs": [
        {
          "internalType": "uint256[]",
          "name": "",
          "type": "uint256[]"
        }
      ],
      "payable": false,
      "stateMutability": "view",
      "type": "function"
    },
    {
      "constant": true,
      "inputs": [],
      "name": "getExecuted",
      "outputs": [
        {
          "internalType": "uint256[]",
          "name": "",
          "type": "uint256[]"
        }
      ],
      "payable": false,
      "stateMutability": "view",
      "type": "function"
    },
    {
      "constant": true,
      "inputs": [],
      "name": "getPending",
      "outputs": [
        {
          "internalType": "uint256[]",
          "name": "",
          "type": "uint256[]"
        }
      ],
      "payable": false,
      "stateMutability": "view",
      "type": "function"
    },
    {
      "constant": true,
      "inputs": [],
      "name": "getCanExecuteCheck",
      "outputs": [
        {
          "internalType": "uint32",
          "name": "",
          "type": "uint32"
        }
      ],
      "payable": false,
      "stateMutability": "view",
      "type": "function"
    },
    {
      "constant": true,
      "inputs": [],
      "name": "getCheCheck",
      "outputs": [
        {
          "internalType": "uint256",
          "name": "",
          "type": "uint256"
        }
      ],
      "payable": false,
      "stateMutability": "view",
      "type": "function"
    },
    {
      "constant": true,
      "inputs": [],
      "name": "getConditionsFrom",
      "outputs": [
        {
          "internalType": "uint256[9][]",
          "name": "",
          "type": "uint256[9][]"
        }
      ],
      "payable": false,
      "stateMutability": "view",
      "type": "function"
    },
    {
      "constant": true,
      "inputs": [],
      "name": "getHashes",
      "outputs": [
        {
          "internalType": "bytes[9]",
          "name": "",
          "type": "bytes[9]"
        }
      ],
      "payable": false,
      "stateMutability": "view",
      "type": "function"
    },
    {
      "constant": false,
      "inputs": [
        {
          "internalType": "uint256",
          "name": "activityId",
          "type": "uint256"
        }
      ],
      "name": "canExecute",
      "outputs": [
        {
          "internalType": "bool",
          "name": "",
          "type": "bool"
        }
      ],
      "payable": false,
      "stateMutability": "nonpayable",
      "type": "function"
    },
    {
      "constant": false,
      "inputs": [
        {
          "internalType": "uint256[]",
          "name": "_includedStates",
          "type": "uint256[]"
        },
        {
          "internalType": "uint256[]",
          "name": "_executedStates",
          "type": "uint256[]"
        },
        {
          "internalType": "uint256[]",
          "name": "_pendingStates",
          "type": "uint256[]"
        },
        {
          "internalType": "uint256[9][]",
          "name": "_includesTo",
          "type": "uint256[9][]"
        },
        {
          "internalType": "uint256[9][]",
          "name": "_excludesTo",
          "type": "uint256[9][]"
        },
        {
          "internalType": "uint256[9][]",
          "name": "_responsesTo",
          "type": "uint256[9][]"
        },
        {
          "internalType": "uint256[9][]",
          "name": "_conditionsFrom",
          "type": "uint256[9][]"
        },
        {
          "internalType": "uint256[9][]",
          "name": "_milestonesFrom",
          "type": "uint256[9][]"
        }
      ],
      "name": "createWorkflow",
      "outputs": [],
      "payable": false,
      "stateMutability": "nonpayable",
      "type": "function"
    },
    {
      "constant": false,
      "inputs": [
        {
          "internalType": "uint256",
          "name": "activityId",
          "type": "uint256"
        },
        {
          "internalType": "bytes",
          "name": "ipfsHash",
          "type": "bytes"
        }
      ],
      "name": "checkCliquedIndex",
      "outputs": [],
      "payable": false,
      "stateMutability": "nonpayable",
      "type": "function"
    }
  ],
  "bytecode": "0x608060405234801561001057600080fd5b50611748806100206000396000f3fe608060405234801561001057600080fd5b50600436106100b45760003560e01c80634e69d560116100715780634e69d5601461016d57806350f87df01461018b578063683617ba146101a757806385a483de146101c3578063af12a571146101e1578063cc63604a146101ff576100b4565b80630775c129146100b957806309be70b2146100d757806311ae9ed2146100f557806315b87213146101135780631ac4db5a146101315780634245d48e1461014f575b600080fd5b6100c161022f565b6040516100ce919061148c565b60405180910390f35b6100df610239565b6040516100ec919061144f565b60405180910390f35b6100fd610291565b60405161010a919061144f565b60405180910390f35b61011b6102e9565b604051610128919061140b565b60405180910390f35b610139610379565b60405161014691906114a7565b60405180910390f35b610157610393565b604051610164919061142d565b60405180910390f35b610175610470565b604051610182919061148c565b60405180910390f35b6101a560048036036101a09190810190610fda565b610479565b005b6101c160048036036101bc9190810190611175565b61057e565b005b6101cb6108e4565b6040516101d8919061148c565b60405180910390f35b6101e96108f1565b6040516101f6919061144f565b60405180910390f35b6102196004803603610214919081019061114c565b610949565b6040516102269190611471565b60405180910390f35b6000600e54905090565b6060600a80548060200260200160405190810160405280929190818152602001828054801561028757602002820191906000526020600020905b815481526020019060010190808311610273575b5050505050905090565b6060600c8054806020026020016040519081016040528092919081815260200182805480156102df57602002820191906000526020600020905b8154815260200190600101908083116102cb575b5050505050905090565b60606012805480602002602001604051908101604052809291908181526020016000905b82821015610370578382906000526020600020906009020160098060200260405190810160405280929190826009801561035c576020028201915b815481526020019060010190808311610348575b50505050508152602001906001019061030d565b50505050905090565b6000600d60009054906101000a900463ffffffff16905090565b61039b610bdb565b6001600980602002604051908101604052809291906000905b82821015610467578382018054600181600116156101000203166002900480601f0160208091040260200160405190810160405280929190818152602001828054600181600116156101000203166002900480156104535780601f1061042857610100808354040283529160200191610453565b820191906000526020600020905b81548152906001019060200180831161043657829003601f168201915b5050505050815260200190600101906103b4565b50505050905090565b60008054905090565b87600a908051906020019061048f929190610c03565b5086600b90805190602001906104a6929190610c03565b5085600c90805190602001906104bd929190610c03565b5084600f90805190602001906104d4929190610c50565b5083601090805190602001906104eb929190610c50565b508260119080519060200190610502929190610c50565b508160129080519060200190610519929190610c50565b508060139080519060200190610530929190610c50565b503373ffffffffffffffffffffffffffffffffffffffff167fd061d6a1bcb331cc1e46ac8ec8ad8e737138f6885b3572c0bddc421f6a6a1c8f60405160405180910390a25050505050505050565b61058782610949565b61059757600080819055506108e0565b6001600b83815481106105a657fe5b90600052602060002001819055506000600c83815481106105c357fe5b906000526020600020018190555080600183600981106105df57fe5b0190805190602001906105f3929190610cae565b506105fc610d2e565b6010838154811061060957fe5b906000526020600020906009020160098060200260405190810160405280929190826009801561064e576020028201915b81548152602001906001019080831161063a575b5050505050905061065d610d2e565b6011848154811061066a57fe5b90600052602060002090600902016009806020026040519081016040528092919082600980156106af576020028201915b81548152602001906001019080831161069b575b505050505090506106be610d2e565b600f85815481106106cb57fe5b9060005260206000209060090201600980602002604051908101604052809291908260098015610710576020028201915b8154815260200190600101908083116106fc575b5050505050905061071f610d2e565b6012868154811061072c57fe5b9060005260206000209060090201600980602002604051908101604052809291908260098015610771576020028201915b81548152602001906001019080831161075d575b5050505050905060008090505b60098110156107c557600182826009811061079557fe5b602002015114156107b85760018382600981106107ae57fe5b6020020181815250505b808060010191505061077e565b5060008090505b60108054905081101561088e5760018582600981106107e757fe5b60200201511415801561080a5750600183826009811061080357fe5b6020020151145b1561082d576001600a828154811061081e57fe5b90600052602060002001819055505b600184826009811061083b57fe5b60200201511415610881576001600c828154811061085557fe5b90600052602060002001819055506001600a828154811061087257fe5b90600052602060002001819055505b80806001019150506107cc565b503373ffffffffffffffffffffffffffffffffffffffff16867f7fab02713bd9109308be361c308de925c6d25f0720e51b753f8f05aeb310565e60405160405180910390a36001600081905550505050505b5050565b6000600f80549050905090565b6060600b80548060200260200160405190810160405280929190818152602001828054801561093f57602002820191906000526020600020905b81548152602001906001019080831161092b575b5050505050905090565b600080600a838154811061095957fe5b90600052602060002001541415610995576001600d60006101000a81548163ffffffff021916908363ffffffff16021790555060009050610bd6565b60008090505b601280549050811015610aa1576109b0610d2e565b601282815481106109bd57fe5b9060005260206000209060090201600980602002604051908101604052809291908260098015610a02576020028201915b8154815260200190600101908083116109ee575b505050505090506001818560098110610a1757fe5b60200201511415610a93576000600b8381548110610a3157fe5b9060005260206000200154148015610a6057506001600a8381548110610a5357fe5b9060005260206000200154145b15610a92576002600d60006101000a81548163ffffffff021916908363ffffffff160217905550600092505050610bd6565b5b50808060010191505061099b565b5060008090505b601380549050811015610bae57610abd610d2e565b60138281548110610aca57fe5b9060005260206000209060090201600980602002604051908101604052809291908260098015610b0f576020028201915b815481526020019060010190808311610afb575b505050505090506001818560098110610b2457fe5b60200201511415610ba0576001600c8381548110610b3e57fe5b9060005260206000200154148015610b6d57506001600a8381548110610b6057fe5b9060005260206000200154145b15610b9f576003600d60006101000a81548163ffffffff021916908363ffffffff160217905550600092505050610bd6565b5b508080600101915050610aa8565b506000600d60006101000a81548163ffffffff021916908363ffffffff160217905550600190505b919050565b6040518061012001604052806009905b6060815260200190600190039081610beb5790505090565b828054828255906000526020600020908101928215610c3f579160200282015b82811115610c3e578251825591602001919060010190610c23565b5b509050610c4c9190610d51565b5090565b828054828255906000526020600020906009028101928215610c9d579160200282015b82811115610c9c57825182906009610c8c929190610d76565b5091602001919060090190610c73565b5b509050610caa9190610db6565b5090565b828054600181600116156101000203166002900490600052602060002090601f016020900481019282601f10610cef57805160ff1916838001178555610d1d565b82800160010185558215610d1d579182015b82811115610d1c578251825591602001919060010190610d01565b5b509050610d2a9190610d51565b5090565b604051806101200160405280600990602082028038833980820191505090505090565b610d7391905b80821115610d6f576000816000905550600101610d57565b5090565b90565b8260098101928215610da5579160200282015b82811115610da4578251825591602001919060010190610d89565b5b509050610db29190610d51565b5090565b610ddf91905b80821115610ddb5760008181610dd29190610de2565b50600901610dbc565b5090565b90565b508060090190610df29190610d51565b50565b600082601f830112610e0657600080fd5b8135610e19610e14826114ef565b6114c2565b9150818183526020840193506020810190508385610120840282011115610e3f57600080fd5b60005b83811015610e705781610e558882610e7a565b84526020840193506101208301925050600181019050610e42565b5050505092915050565b600082601f830112610e8b57600080fd5b6009610e9e610e9982611517565b6114c2565b91508183856020840282011115610eb457600080fd5b60005b83811015610ee45781610eca8882610fc5565b845260208401935060208301925050600181019050610eb7565b5050505092915050565b600082601f830112610eff57600080fd5b8135610f12610f0d82611539565b6114c2565b91508181835260208401935060208101905083856020840282011115610f3757600080fd5b60005b83811015610f675781610f4d8882610fc5565b845260208401935060208301925050600181019050610f3a565b5050505092915050565b600082601f830112610f8257600080fd5b8135610f95610f9082611561565b6114c2565b91508082526020830160208301858383011115610fb157600080fd5b610fbc83828461169b565b50505092915050565b600081359050610fd4816116ee565b92915050565b600080600080600080600080610100898b031215610ff757600080fd5b600089013567ffffffffffffffff81111561101157600080fd5b61101d8b828c01610eee565b985050602089013567ffffffffffffffff81111561103a57600080fd5b6110468b828c01610eee565b975050604089013567ffffffffffffffff81111561106357600080fd5b61106f8b828c01610eee565b965050606089013567ffffffffffffffff81111561108c57600080fd5b6110988b828c01610df5565b955050608089013567ffffffffffffffff8111156110b557600080fd5b6110c18b828c01610df5565b94505060a089013567ffffffffffffffff8111156110de57600080fd5b6110ea8b828c01610df5565b93505060c089013567ffffffffffffffff81111561110757600080fd5b6111138b828c01610df5565b92505060e089013567ffffffffffffffff81111561113057600080fd5b61113c8b828c01610df5565b9150509295985092959890939650565b60006020828403121561115e57600080fd5b600061116c84828501610fc5565b91505092915050565b6000806040838503121561118857600080fd5b600061119685828601610fc5565b925050602083013567ffffffffffffffff8111156111b357600080fd5b6111bf85828601610f71565b9150509250929050565b60006111d583836112e1565b6101208301905092915050565b60006111ee83836113a5565b905092915050565b600061120283836113de565b60208301905092915050565b6000611219826115c1565b611223818561162c565b935061122e8361158d565b8060005b8381101561125f57815161124688826111c9565b9750611251836115f8565b925050600181019050611232565b5085935050505092915050565b6000611277826115cc565b611281818561163d565b9350836020820285016112938561159d565b8060005b858110156112cf57848403895281516112b085826111e2565b94506112bb83611605565b925060208a01995050600181019050611297565b50829750879550505050505092915050565b6112ea816115d7565b6112f48184611648565b92506112ff826115a7565b8060005b8381101561133057815161131787826111f6565b965061132283611612565b925050600181019050611303565b505050505050565b6000611343826115e2565b61134d8185611653565b9350611358836115b1565b8060005b8381101561138957815161137088826111f6565b975061137b8361161f565b92505060018101905061135c565b5085935050505092915050565b61139f81611675565b82525050565b60006113b0826115ed565b6113ba8185611664565b93506113ca8185602086016116aa565b6113d3816116dd565b840191505092915050565b6113e781611681565b82525050565b6113f681611681565b82525050565b6114058161168b565b82525050565b60006020820190508181036000830152611425818461120e565b905092915050565b60006020820190508181036000830152611447818461126c565b905092915050565b600060208201905081810360008301526114698184611338565b905092915050565b60006020820190506114866000830184611396565b92915050565b60006020820190506114a160008301846113ed565b92915050565b60006020820190506114bc60008301846113fc565b92915050565b6000604051905081810181811067ffffffffffffffff821117156114e557600080fd5b8060405250919050565b600067ffffffffffffffff82111561150657600080fd5b602082029050602081019050919050565b600067ffffffffffffffff82111561152e57600080fd5b602082029050919050565b600067ffffffffffffffff82111561155057600080fd5b602082029050602081019050919050565b600067ffffffffffffffff82111561157857600080fd5b601f19601f8301169050602081019050919050565b6000819050602082019050919050565b6000819050919050565b6000819050919050565b6000819050602082019050919050565b600081519050919050565b600060099050919050565b600060099050919050565b600081519050919050565b600081519050919050565b6000602082019050919050565b6000602082019050919050565b6000602082019050919050565b6000602082019050919050565b600082825260208201905092915050565b600081905092915050565b600081905092915050565b600082825260208201905092915050565b600082825260208201905092915050565b60008115159050919050565b6000819050919050565b600063ffffffff82169050919050565b82818337600083830152505050565b60005b838110156116c85780820151818401526020810190506116ad565b838111156116d7576000848401525b50505050565b6000601f19601f8301169050919050565b6116f781611681565b811461170257600080fd5b5056fea365627a7a7231582089bd1d68f1f83125b36af41569316c7e1bb9dceda116de2624417f7f24f7ba456c6578706572696d656e74616cf564736f6c63430005100040",
  "source": "//pragma solidity 0.5.10;\npragma experimental ABIEncoderV2;\n\n// inspired from https://github.com/DCReum/dcreum.github.io/blob/dev/contracts/workflow.sol\n\ncontract SimpleDCReum {\n\n  // event declaration\n  event LogWorkflowCreation (address indexed creator);\n  event LogExecution (uint256 indexed activityId, address indexed executor);\n\n  // variable declarations. 0=no, 1=yes\n  uint256 status; \n\n  //activity data:\n  //string[] activityNames;\n  bytes[9] ipfsActivityHashes;\n\n  uint256[] included;\n  uint256[] executed;\n  uint256[] pending;\n\n  uint32 canExecuteCheck;\n  uint256 checheck;\n  //relations\n  uint256[9][] includesTo;\n  uint256[9][] excludesTo;\n  uint256[9][] responsesTo;\n  uint256[9][] conditionsFrom;\n  uint256[9][] milestonesFrom;\n\n\n  ///////////////// Misc ////////////////////////\n\n  function getStatus() public view returns (uint256) {\n    return status;\n  }\n  \n  function getWkfLength() public view returns (uint256){\n    return includesTo.length;\n  }\n\n  function getIncluded() public view returns (uint256[] memory){\n    return included;\n  }\n  function getExecuted() public view returns (uint256[] memory){\n    return executed;\n  }\n  function getPending() public view returns (uint256[] memory){\n    return pending;\n  }\n\n  function getCanExecuteCheck() public view returns (uint32){\n    return canExecuteCheck;\n  }\n\n  function getCheCheck() public view returns (uint256){\n    return checheck;\n  }\n\n  function getConditionsFrom() public view returns (uint256[9][] memory){\n    return conditionsFrom;\n  }\n\n  function getHashes() public view returns (bytes[9] memory) {\n    return ipfsActivityHashes;\n  }\n\n\n  ///////////////// Utils /////////////////////////\n  \n  function canExecute (uint256 activityId) public returns (bool) {\n    \n    // activity must be included\n    if(included[activityId] == 0){\n      canExecuteCheck = 1;\n      return false;\n    } \n\n    // all conditions executed\n    for(uint id=0; id<conditionsFrom.length;id++){\n      uint256[9] memory conditionsRow = conditionsFrom[id]; \n      if(conditionsRow[activityId]==1){\n        if((executed[id]==0) && (included[id]==1)){\n          canExecuteCheck = 2;\n          return false;\n        } \n      }\n    }\n\n    // no milestones pending\n    for(uint id=0; id<milestonesFrom.length;id++){\n      uint256[9] memory milestonesRow = milestonesFrom[id]; \n      if(milestonesRow[activityId]==1){\n        if((pending[id]==1) && (included[id]==1)){\n          canExecuteCheck = 3;\n          return false;\n        } \n      }\n    }\n\n    canExecuteCheck = 0;\n    return true;\n  }\n\n  ///////////////// Main functions /////////////////////////\n\n\n  function createWorkflow(\n    // packed state variables\n    uint256[] memory _includedStates,\n    uint256[] memory _executedStates,\n    uint256[] memory _pendingStates,\n    //bytes[] memory _activityNames,\n\n    // relations\n    uint256[9][] memory _includesTo,\n    uint256[9][] memory _excludesTo,\n    uint256[9][] memory _responsesTo,\n    uint256[9][] memory _conditionsFrom,\n    uint256[9][] memory _milestonesFrom\n  ) public {\n    // activity data\n    //activityNames = _activityNames;\n    included = _includedStates;\n    executed = _executedStates;\n    pending = _pendingStates;\n\n    // relations\n    includesTo = _includesTo;\n    excludesTo = _excludesTo;\n    responsesTo = _responsesTo;\n    conditionsFrom = _conditionsFrom;\n    milestonesFrom = _milestonesFrom;\n    \n    emit LogWorkflowCreation(msg.sender);\n  }\n\n\n\nfunction checkCliquedIndex(uint256 activityId, bytes memory ipfsHash) public {\n    if (!canExecute(activityId)) {\n      status = 0;\n      //revert();\n    }\n    else {\n      // executed activity\n      executed[activityId] = 1;\n      pending[activityId] = 0; \n      ipfsActivityHashes[activityId] = ipfsHash; \n\n      uint256[9] memory exclude_vect_check =  excludesTo[activityId];\n      uint256[9] memory response_vect_check =  responsesTo[activityId];\n\n      // add include relations\n      uint256[9] memory include_vect_check =  includesTo[activityId];\n\n      // update with condition relations ok\n      uint256[9] memory conditionsTo =  conditionsFrom[activityId]; //extract row condition \n      for (uint id=0; id<conditionsTo.length;id++){\n        if(conditionsTo[id]==1){\n            include_vect_check[id]=1;\n        }\n      }\n\n      for(uint id=0; id<excludesTo.length;id++){\n        // exclude and include relations pass\n        // note includes happens after the exclude pass    \n        // included = (included & ~excludesTo[activityId]) | includesTo[activityId];\n        if((exclude_vect_check[id]!=1) && (include_vect_check[id]==1)){\n          included[id]=1;\n        }\n\n        // response relations pass\n        // pending = (pending | responsesTo[activityId]);\n        if (response_vect_check[id] == 1){\n          pending[id]=1;\n          included[id]=1;\n        }\n      }\n\n      emit LogExecution(activityId, msg.sender);\n\n      status = 1;\n    }\n  }\n}\n",
  "sourcePath": "/home/vtlr2002/source/procrm/testPlatform/contracts/SimpleDCReum.sol",
  "compiler": {
    "name": "solc",
    "version": "0.5.16+commit.9c3226ce.Emscripten.clang"
  },
  "schemaVersion": "3.2.4",
  "updatedAt": "2020-11-02T15:42:27.453Z",
  "devdoc": {
    "methods": {}
  },
  "userdoc": {
    "methods": {
      "canExecute(uint256)": {
        "notice": "////////////// Utils /////////////////////////"
      },
      "createWorkflow(uint256[],uint256[],uint256[],uint256[9][],uint256[9][],uint256[9][],uint256[9][],uint256[9][])": {
        "notice": "////////////// Main functions /////////////////////////"
      },
      "getStatus()": {
        "notice": "////////////// Misc ////////////////////////"
      }
    }
  }
}